{
  "contractName": "PermissionedAccess",
  "abi": [
    {
      "constant": true,
      "inputs": [],
      "name": "coo",
      "outputs": [
        {
          "name": "",
          "type": "address"
        }
      ],
      "payable": false,
      "stateMutability": "view",
      "type": "function"
    },
    {
      "constant": true,
      "inputs": [],
      "name": "cfo",
      "outputs": [
        {
          "name": "",
          "type": "address"
        }
      ],
      "payable": false,
      "stateMutability": "view",
      "type": "function"
    },
    {
      "constant": false,
      "inputs": [
        {
          "name": "_newCEO",
          "type": "address"
        }
      ],
      "name": "setCEO",
      "outputs": [],
      "payable": false,
      "stateMutability": "nonpayable",
      "type": "function"
    },
    {
      "constant": false,
      "inputs": [
        {
          "name": "_newCOO",
          "type": "address"
        }
      ],
      "name": "setCOO",
      "outputs": [],
      "payable": false,
      "stateMutability": "nonpayable",
      "type": "function"
    },
    {
      "constant": false,
      "inputs": [
        {
          "name": "_newCFO",
          "type": "address"
        }
      ],
      "name": "setCFO",
      "outputs": [],
      "payable": false,
      "stateMutability": "nonpayable",
      "type": "function"
    },
    {
      "constant": true,
      "inputs": [],
      "name": "paused",
      "outputs": [
        {
          "name": "",
          "type": "bool"
        }
      ],
      "payable": false,
      "stateMutability": "view",
      "type": "function"
    },
    {
      "constant": false,
      "inputs": [],
      "name": "pause",
      "outputs": [],
      "payable": false,
      "stateMutability": "nonpayable",
      "type": "function"
    },
    {
      "constant": true,
      "inputs": [],
      "name": "ceo",
      "outputs": [
        {
          "name": "",
          "type": "address"
        }
      ],
      "payable": false,
      "stateMutability": "view",
      "type": "function"
    },
    {
      "constant": true,
      "inputs": [],
      "name": "getCLevel",
      "outputs": [
        {
          "name": "_ceo",
          "type": "address"
        },
        {
          "name": "_cfo",
          "type": "address"
        },
        {
          "name": "_coo",
          "type": "address"
        }
      ],
      "payable": false,
      "stateMutability": "view",
      "type": "function"
    },
    {
      "constant": false,
      "inputs": [],
      "name": "unPause",
      "outputs": [],
      "payable": false,
      "stateMutability": "nonpayable",
      "type": "function"
    },
    {
      "inputs": [],
      "payable": false,
      "stateMutability": "nonpayable",
      "type": "constructor"
    }
  ],
  "bytecode": "0x60606040526000600260146101000a81548160ff021916908315150217905550341561002a57600080fd5b336000806101000a81548173ffffffffffffffffffffffffffffffffffffffff021916908373ffffffffffffffffffffffffffffffffffffffff1602179055506108f4806100796000396000f3006060604052600436106100a4576000357c0100000000000000000000000000000000000000000000000000000000900463ffffffff16806307cdee49146100a95780631ed20347146100fe57806327d7874c146101535780632ba73c151461018c5780634e0a3379146101c55780635c975abb146101fe5780638456cb591461022b578063908921fc14610240578063eca5d2d814610295578063f7b188a514610350575b600080fd5b34156100b457600080fd5b6100bc610365565b604051808273ffffffffffffffffffffffffffffffffffffffff1673ffffffffffffffffffffffffffffffffffffffff16815260200191505060405180910390f35b341561010957600080fd5b61011161038b565b604051808273ffffffffffffffffffffffffffffffffffffffff1673ffffffffffffffffffffffffffffffffffffffff16815260200191505060405180910390f35b341561015e57600080fd5b61018a600480803573ffffffffffffffffffffffffffffffffffffffff169060200190919050506103b1565b005b341561019757600080fd5b6101c3600480803573ffffffffffffffffffffffffffffffffffffffff1690602001909190505061048b565b005b34156101d057600080fd5b6101fc600480803573ffffffffffffffffffffffffffffffffffffffff16906020019091905050610566565b005b341561020957600080fd5b610211610641565b604051808215151515815260200191505060405180910390f35b341561023657600080fd5b61023e610654565b005b341561024b57600080fd5b610253610798565b604051808273ffffffffffffffffffffffffffffffffffffffff1673ffffffffffffffffffffffffffffffffffffffff16815260200191505060405180910390f35b34156102a057600080fd5b6102a86107bd565b604051808473ffffffffffffffffffffffffffffffffffffffff1673ffffffffffffffffffffffffffffffffffffffff1681526020018373ffffffffffffffffffffffffffffffffffffffff1673ffffffffffffffffffffffffffffffffffffffff1681526020018273ffffffffffffffffffffffffffffffffffffffff1673ffffffffffffffffffffffffffffffffffffffff168152602001935050505060405180910390f35b341561035b57600080fd5b610363610835565b005b600260009054906101000a900473ffffffffffffffffffffffffffffffffffffffff1681565b600160009054906101000a900473ffffffffffffffffffffffffffffffffffffffff1681565b6000809054906101000a900473ffffffffffffffffffffffffffffffffffffffff1673ffffffffffffffffffffffffffffffffffffffff163373ffffffffffffffffffffffffffffffffffffffff1614151561040c57600080fd5b600073ffffffffffffffffffffffffffffffffffffffff168173ffffffffffffffffffffffffffffffffffffffff161415151561044857600080fd5b806000806101000a81548173ffffffffffffffffffffffffffffffffffffffff021916908373ffffffffffffffffffffffffffffffffffffffff16021790555050565b6000809054906101000a900473ffffffffffffffffffffffffffffffffffffffff1673ffffffffffffffffffffffffffffffffffffffff163373ffffffffffffffffffffffffffffffffffffffff161415156104e657600080fd5b600073ffffffffffffffffffffffffffffffffffffffff168173ffffffffffffffffffffffffffffffffffffffff161415151561052257600080fd5b80600260006101000a81548173ffffffffffffffffffffffffffffffffffffffff021916908373ffffffffffffffffffffffffffffffffffffffff16021790555050565b6000809054906101000a900473ffffffffffffffffffffffffffffffffffffffff1673ffffffffffffffffffffffffffffffffffffffff163373ffffffffffffffffffffffffffffffffffffffff161415156105c157600080fd5b600073ffffffffffffffffffffffffffffffffffffffff168173ffffffffffffffffffffffffffffffffffffffff16141515156105fd57600080fd5b80600160006101000a81548173ffffffffffffffffffffffffffffffffffffffff021916908373ffffffffffffffffffffffffffffffffffffffff16021790555050565b600260149054906101000a900460ff1681565b6000809054906101000a900473ffffffffffffffffffffffffffffffffffffffff1673ffffffffffffffffffffffffffffffffffffffff163373ffffffffffffffffffffffffffffffffffffffff1614806106fc5750600160009054906101000a900473ffffffffffffffffffffffffffffffffffffffff1673ffffffffffffffffffffffffffffffffffffffff163373ffffffffffffffffffffffffffffffffffffffff16145b806107545750600260009054906101000a900473ffffffffffffffffffffffffffffffffffffffff1673ffffffffffffffffffffffffffffffffffffffff163373ffffffffffffffffffffffffffffffffffffffff16145b151561075f57600080fd5b600260149054906101000a900460ff1615151561077b57600080fd5b6001600260146101000a81548160ff021916908315150217905550565b6000809054906101000a900473ffffffffffffffffffffffffffffffffffffffff1681565b60008060008060009054906101000a900473ffffffffffffffffffffffffffffffffffffffff169250600160009054906101000a900473ffffffffffffffffffffffffffffffffffffffff169150600260009054906101000a900473ffffffffffffffffffffffffffffffffffffffff169050909192565b6000809054906101000a900473ffffffffffffffffffffffffffffffffffffffff1673ffffffffffffffffffffffffffffffffffffffff163373ffffffffffffffffffffffffffffffffffffffff1614151561089057600080fd5b600260149054906101000a900460ff1615156108ab57600080fd5b6000600260146101000a81548160ff0219169083151502179055505600a165627a7a7230582007b5e23e523ebd938b14b8e31d071864d2638db1fc2d0bc4d1e4a850ae8aa5460029",
  "source": "pragma solidity ^0.4.17;\n\ncontract PermissionedAccess {\n    // Basic permission functionality.\n    // Doesn't do anything with pauses but probably should to handle bugs\n\n    // initalize address types\n    address public ceo;\n    address public cfo;\n    address public coo;\n\n    // allow contracts to pauses\n    bool public paused = false;\n\n    // modifier for only ceo\n    modifier onlyCEO() {\n        require(msg.sender == ceo);\n        _;\n    }\n\n    // modifier for only cfo\n    modifier onlyCFO() {\n        require(msg.sender == cfo);\n        _;\n    }\n\n    // modifier for only controls\n    modifier onlyCOO() {\n        require(msg.sender == coo);\n        _;\n    }\n\n    modifier onlyCLevel() {\n\n        require(\n            msg.sender == ceo ||\n            msg.sender == cfo ||\n            msg.sender == coo\n        );\n        _;\n    }\n\n    modifier whenPaused {\n        require(paused);\n        _;\n    }\n\n    modifier whenNotPaused {\n        require(!paused);\n        _;\n    }\n\n    function PermissionedAccess() public {\n        ceo = msg.sender;\n    }\n\n    // change ceo\n    // only ceo can change ceo\n    function setCEO(address _newCEO) external onlyCEO {\n        require(_newCEO != address(0));\n        ceo = _newCEO;\n    }\n\n    // change cfo\n    // only ceo can change cfo\n    function setCFO(address _newCFO) external onlyCEO {\n        require(_newCFO != address(0));\n        cfo = _newCFO;\n    }\n\n    // change coo\n    // only ceo can change coo\n    function setCOO(address _newCOO) external onlyCEO {\n        require(_newCOO != address(0));\n        coo = _newCOO;\n    }\n\n    // pause contract\n    function pause() external onlyCLevel whenNotPaused {\n        paused = true;\n    }\n\n    // unpause, only ceo\n    function unPause() external onlyCEO whenPaused {\n        paused = false;\n    }\n\n    function getCLevel() external view returns (\n        \n        address _ceo,\n        address _cfo,\n        address _coo)\n        {\n            _ceo = ceo;\n            _cfo = cfo;\n            _coo = coo;\n        }\n}\n",
  "sourcePath": "/Users/stevelee/Documents/BookLocal/proofOfConcept/contracts/PermissionedAccess.sol",
  "compiler": {
    "name": "solc",
    "version": "0.4.18+commit.9cf6e910.Emscripten.clang"
  },
  "schemaVersion": "1.0.1",
  "updatedAt": "2018-02-10T21:24:26.377Z"
}