{
  "contractName": "RoomOwnership",
  "abi": [
    {
      "constant": false,
      "inputs": [
        {
          "name": "_tokenId",
          "type": "uint256"
        },
        {
          "name": "_beds",
          "type": "uint16"
        }
      ],
      "name": "changeNumBeds",
      "outputs": [],
      "payable": false,
      "stateMutability": "nonpayable",
      "type": "function"
    },
    {
      "constant": true,
      "inputs": [],
      "name": "coo",
      "outputs": [
        {
          "name": "",
          "type": "address"
        }
      ],
      "payable": false,
      "stateMutability": "view",
      "type": "function"
    },
    {
      "constant": false,
      "inputs": [
        {
          "name": "_to",
          "type": "address"
        },
        {
          "name": "_tokenId",
          "type": "uint256"
        }
      ],
      "name": "approve",
      "outputs": [],
      "payable": false,
      "stateMutability": "nonpayable",
      "type": "function"
    },
    {
      "constant": true,
      "inputs": [],
      "name": "totalSupply",
      "outputs": [
        {
          "name": "supply",
          "type": "uint256"
        }
      ],
      "payable": false,
      "stateMutability": "view",
      "type": "function"
    },
    {
      "constant": true,
      "inputs": [
        {
          "name": "",
          "type": "uint256"
        }
      ],
      "name": "rooms",
      "outputs": [
        {
          "name": "owner",
          "type": "address"
        },
        {
          "name": "renter",
          "type": "address"
        },
        {
          "name": "minRentTime",
          "type": "uint256"
        },
        {
          "name": "numBeds",
          "type": "uint16"
        }
      ],
      "payable": false,
      "stateMutability": "view",
      "type": "function"
    },
    {
      "constant": true,
      "inputs": [],
      "name": "cfo",
      "outputs": [
        {
          "name": "",
          "type": "address"
        }
      ],
      "payable": false,
      "stateMutability": "view",
      "type": "function"
    },
    {
      "constant": false,
      "inputs": [
        {
          "name": "_from",
          "type": "address"
        },
        {
          "name": "_to",
          "type": "address"
        },
        {
          "name": "_tokenId",
          "type": "uint256"
        }
      ],
      "name": "transferFrom",
      "outputs": [],
      "payable": false,
      "stateMutability": "nonpayable",
      "type": "function"
    },
    {
      "constant": false,
      "inputs": [
        {
          "name": "_newCEO",
          "type": "address"
        }
      ],
      "name": "setCEO",
      "outputs": [],
      "payable": false,
      "stateMutability": "nonpayable",
      "type": "function"
    },
    {
      "constant": false,
      "inputs": [
        {
          "name": "_newCOO",
          "type": "address"
        }
      ],
      "name": "setCOO",
      "outputs": [],
      "payable": false,
      "stateMutability": "nonpayable",
      "type": "function"
    },
    {
      "constant": false,
      "inputs": [
        {
          "name": "_tokenId",
          "type": "uint256"
        },
        {
          "name": "_newMin",
          "type": "uint256"
        }
      ],
      "name": "changeMinRental",
      "outputs": [],
      "payable": false,
      "stateMutability": "nonpayable",
      "type": "function"
    },
    {
      "constant": true,
      "inputs": [
        {
          "name": "",
          "type": "uint256"
        },
        {
          "name": "",
          "type": "uint256"
        }
      ],
      "name": "reservations",
      "outputs": [
        {
          "name": "",
          "type": "address"
        }
      ],
      "payable": false,
      "stateMutability": "view",
      "type": "function"
    },
    {
      "constant": false,
      "inputs": [
        {
          "name": "_newCFO",
          "type": "address"
        }
      ],
      "name": "setCFO",
      "outputs": [],
      "payable": false,
      "stateMutability": "nonpayable",
      "type": "function"
    },
    {
      "constant": true,
      "inputs": [
        {
          "name": "_tokenId",
          "type": "uint256"
        }
      ],
      "name": "ownerOf_2",
      "outputs": [
        {
          "name": "owner",
          "type": "address"
        }
      ],
      "payable": false,
      "stateMutability": "view",
      "type": "function"
    },
    {
      "constant": true,
      "inputs": [
        {
          "name": "_tokenId",
          "type": "uint256"
        }
      ],
      "name": "getCurrentTime",
      "outputs": [
        {
          "name": "_time",
          "type": "uint256"
        }
      ],
      "payable": false,
      "stateMutability": "view",
      "type": "function"
    },
    {
      "constant": true,
      "inputs": [],
      "name": "paused",
      "outputs": [
        {
          "name": "",
          "type": "bool"
        }
      ],
      "payable": false,
      "stateMutability": "view",
      "type": "function"
    },
    {
      "constant": true,
      "inputs": [
        {
          "name": "_tokenId",
          "type": "uint256"
        }
      ],
      "name": "ownerOf",
      "outputs": [
        {
          "name": "",
          "type": "address"
        }
      ],
      "payable": false,
      "stateMutability": "view",
      "type": "function"
    },
    {
      "constant": true,
      "inputs": [
        {
          "name": "_tokenId",
          "type": "uint256"
        }
      ],
      "name": "getRoomInfo",
      "outputs": [
        {
          "name": "owner",
          "type": "address"
        },
        {
          "name": "renter",
          "type": "address"
        },
        {
          "name": "minRentTime",
          "type": "uint256"
        },
        {
          "name": "numBeds",
          "type": "uint16"
        }
      ],
      "payable": false,
      "stateMutability": "view",
      "type": "function"
    },
    {
      "constant": true,
      "inputs": [
        {
          "name": "_owner",
          "type": "address"
        }
      ],
      "name": "balanceOf",
      "outputs": [
        {
          "name": "count",
          "type": "uint256"
        }
      ],
      "payable": false,
      "stateMutability": "view",
      "type": "function"
    },
    {
      "constant": false,
      "inputs": [
        {
          "name": "_numBeds",
          "type": "uint16"
        }
      ],
      "name": "addRoom",
      "outputs": [
        {
          "name": "",
          "type": "uint256"
        }
      ],
      "payable": false,
      "stateMutability": "nonpayable",
      "type": "function"
    },
    {
      "constant": true,
      "inputs": [
        {
          "name": "",
          "type": "uint256"
        }
      ],
      "name": "transferApproval_byIndex",
      "outputs": [
        {
          "name": "",
          "type": "address"
        }
      ],
      "payable": false,
      "stateMutability": "view",
      "type": "function"
    },
    {
      "constant": false,
      "inputs": [],
      "name": "pause",
      "outputs": [],
      "payable": false,
      "stateMutability": "nonpayable",
      "type": "function"
    },
    {
      "constant": true,
      "inputs": [],
      "name": "ceo",
      "outputs": [
        {
          "name": "",
          "type": "address"
        }
      ],
      "payable": false,
      "stateMutability": "view",
      "type": "function"
    },
    {
      "constant": true,
      "inputs": [],
      "name": "MIN_RENT_TIME",
      "outputs": [
        {
          "name": "",
          "type": "uint256"
        }
      ],
      "payable": false,
      "stateMutability": "view",
      "type": "function"
    },
    {
      "constant": false,
      "inputs": [
        {
          "name": "_to",
          "type": "address"
        },
        {
          "name": "_tokenId",
          "type": "uint256"
        }
      ],
      "name": "transfer",
      "outputs": [],
      "payable": false,
      "stateMutability": "nonpayable",
      "type": "function"
    },
    {
      "constant": true,
      "inputs": [
        {
          "name": "",
          "type": "uint256"
        }
      ],
      "name": "roomOwners_byIndex",
      "outputs": [
        {
          "name": "",
          "type": "address"
        }
      ],
      "payable": false,
      "stateMutability": "view",
      "type": "function"
    },
    {
      "constant": true,
      "inputs": [
        {
          "name": "",
          "type": "address"
        }
      ],
      "name": "numRooms_byOwner",
      "outputs": [
        {
          "name": "",
          "type": "uint256"
        }
      ],
      "payable": false,
      "stateMutability": "view",
      "type": "function"
    },
    {
      "constant": false,
      "inputs": [],
      "name": "unPause",
      "outputs": [],
      "payable": false,
      "stateMutability": "nonpayable",
      "type": "function"
    }
  ],
  "bytecode": "0x60606040526000600260146101000a81548160ff02191690831515021790555062015180600455336000806101000a81548173ffffffffffffffffffffffffffffffffffffffff021916908373ffffffffffffffffffffffffffffffffffffffff160217905550611ab1806100756000396000f30060606040526004361061015f576000357c0100000000000000000000000000000000000000000000000000000000900463ffffffff1680630335e0fc1461016457806307cdee4914610194578063095ea7b3146101e957806318160ddd1461022b5780631bae0ac8146102545780631ed203471461030057806323b872dd1461035557806327d7874c146103b65780632ba73c15146103ef5780632ea665781461042857806330662b7b146104545780634e0a3379146104c05780634f369e73146104f9578063595bb90f1461055c5780635c975abb146105935780636352211e146105c05780636790d2b51461062357806370a08231146106cf5780637ba6828a1461071c5780637d89b7c5146107575780638456cb59146107ba578063908921fc146107cf578063a6dfed6914610824578063a9059cbb1461084d578063b858da351461088f578063ca184a25146108f2578063f7b188a51461093f575b600080fd5b341561016f57600080fd5b610192600480803590602001909190803561ffff16906020019091905050610954565b005b341561019f57600080fd5b6101a76109f7565b604051808273ffffffffffffffffffffffffffffffffffffffff1673ffffffffffffffffffffffffffffffffffffffff16815260200191505060405180910390f35b34156101f457600080fd5b610229600480803573ffffffffffffffffffffffffffffffffffffffff16906020019091908035906020019091905050610a1d565b005b341561023657600080fd5b61023e610a40565b6040518082815260200191505060405180910390f35b341561025f57600080fd5b6102756004808035906020019091905050610a4d565b604051808573ffffffffffffffffffffffffffffffffffffffff1673ffffffffffffffffffffffffffffffffffffffff1681526020018473ffffffffffffffffffffffffffffffffffffffff1673ffffffffffffffffffffffffffffffffffffffff1681526020018381526020018261ffff1661ffff16815260200194505050505060405180910390f35b341561030b57600080fd5b610313610ada565b604051808273ffffffffffffffffffffffffffffffffffffffff1673ffffffffffffffffffffffffffffffffffffffff16815260200191505060405180910390f35b341561036057600080fd5b6103b4600480803573ffffffffffffffffffffffffffffffffffffffff1690602001909190803573ffffffffffffffffffffffffffffffffffffffff16906020019091908035906020019091905050610b00565b005b34156103c157600080fd5b6103ed600480803573ffffffffffffffffffffffffffffffffffffffff16906020019091905050610bb1565b005b34156103fa57600080fd5b610426600480803573ffffffffffffffffffffffffffffffffffffffff16906020019091905050610c8b565b005b341561043357600080fd5b6104526004808035906020019091908035906020019091905050610d66565b005b341561045f57600080fd5b61047e6004808035906020019091908035906020019091905050610df3565b604051808273ffffffffffffffffffffffffffffffffffffffff1673ffffffffffffffffffffffffffffffffffffffff16815260200191505060405180910390f35b34156104cb57600080fd5b6104f7600480803573ffffffffffffffffffffffffffffffffffffffff16906020019091905050610e35565b005b341561050457600080fd5b61051a6004808035906020019091905050610f10565b604051808273ffffffffffffffffffffffffffffffffffffffff1673ffffffffffffffffffffffffffffffffffffffff16815260200191505060405180910390f35b341561056757600080fd5b61057d6004808035906020019091905050610f5f565b6040518082815260200191505060405180910390f35b341561059e57600080fd5b6105a6610f9f565b604051808215151515815260200191505060405180910390f35b34156105cb57600080fd5b6105e16004808035906020019091905050610fb2565b604051808273ffffffffffffffffffffffffffffffffffffffff1673ffffffffffffffffffffffffffffffffffffffff16815260200191505060405180910390f35b341561062e57600080fd5b6106446004808035906020019091905050611030565b604051808573ffffffffffffffffffffffffffffffffffffffff1673ffffffffffffffffffffffffffffffffffffffff1681526020018473ffffffffffffffffffffffffffffffffffffffff1673ffffffffffffffffffffffffffffffffffffffff1681526020018381526020018261ffff1661ffff16815260200194505050505060405180910390f35b34156106da57600080fd5b610706600480803573ffffffffffffffffffffffffffffffffffffffff169060200190919050506110c9565b6040518082815260200191505060405180910390f35b341561072757600080fd5b610741600480803561ffff16906020019091905050611115565b6040518082815260200191505060405180910390f35b341561076257600080fd5b6107786004808035906020019091905050611395565b604051808273ffffffffffffffffffffffffffffffffffffffff1673ffffffffffffffffffffffffffffffffffffffff16815260200191505060405180910390f35b34156107c557600080fd5b6107cd6113c8565b005b34156107da57600080fd5b6107e261150c565b604051808273ffffffffffffffffffffffffffffffffffffffff1673ffffffffffffffffffffffffffffffffffffffff16815260200191505060405180910390f35b341561082f57600080fd5b610837611531565b6040518082815260200191505060405180910390f35b341561085857600080fd5b61088d600480803573ffffffffffffffffffffffffffffffffffffffff16906020019091908035906020019091905050611537565b005b341561089a57600080fd5b6108b060048080359060200190919050506115d2565b604051808273ffffffffffffffffffffffffffffffffffffffff1673ffffffffffffffffffffffffffffffffffffffff16815260200191505060405180910390f35b34156108fd57600080fd5b610929600480803573ffffffffffffffffffffffffffffffffffffffff16906020019091905050611605565b6040518082815260200191505060405180910390f35b341561094a57600080fd5b61095261161d565b005b600060038381548110151561096557fe5b906000526020600020906004020190508060000160009054906101000a900473ffffffffffffffffffffffffffffffffffffffff1673ffffffffffffffffffffffffffffffffffffffff163373ffffffffffffffffffffffffffffffffffffffff161415156109d357600080fd5b818160030160006101000a81548161ffff021916908361ffff160217905550505050565b600260009054906101000a900473ffffffffffffffffffffffffffffffffffffffff1681565b610a2733826116b0565b1515610a3257600080fd5b610a3c818361171c565b5050565b6000600380549050905090565b600381815481101515610a5c57fe5b90600052602060002090600402016000915090508060000160009054906101000a900473ffffffffffffffffffffffffffffffffffffffff16908060010160009054906101000a900473ffffffffffffffffffffffffffffffffffffffff16908060020154908060030160009054906101000a900461ffff16905084565b600160009054906101000a900473ffffffffffffffffffffffffffffffffffffffff1681565b600073ffffffffffffffffffffffffffffffffffffffff168273ffffffffffffffffffffffffffffffffffffffff1614151515610b3c57600080fd5b3073ffffffffffffffffffffffffffffffffffffffff168273ffffffffffffffffffffffffffffffffffffffff1614151515610b7757600080fd5b610b813382611772565b1515610b8c57600080fd5b610b9683826116b0565b1515610ba157600080fd5b610bac8383836117de565b505050565b6000809054906101000a900473ffffffffffffffffffffffffffffffffffffffff1673ffffffffffffffffffffffffffffffffffffffff163373ffffffffffffffffffffffffffffffffffffffff16141515610c0c57600080fd5b600073ffffffffffffffffffffffffffffffffffffffff168173ffffffffffffffffffffffffffffffffffffffff1614151515610c4857600080fd5b806000806101000a81548173ffffffffffffffffffffffffffffffffffffffff021916908373ffffffffffffffffffffffffffffffffffffffff16021790555050565b6000809054906101000a900473ffffffffffffffffffffffffffffffffffffffff1673ffffffffffffffffffffffffffffffffffffffff163373ffffffffffffffffffffffffffffffffffffffff16141515610ce657600080fd5b600073ffffffffffffffffffffffffffffffffffffffff168173ffffffffffffffffffffffffffffffffffffffff1614151515610d2257600080fd5b80600260006101000a81548173ffffffffffffffffffffffffffffffffffffffff021916908373ffffffffffffffffffffffffffffffffffffffff16021790555050565b6000600383815481101515610d7757fe5b906000526020600020906004020190508060000160009054906101000a900473ffffffffffffffffffffffffffffffffffffffff1673ffffffffffffffffffffffffffffffffffffffff163373ffffffffffffffffffffffffffffffffffffffff16141515610de557600080fd5b818160020181905550505050565b60086020528160005260406000206020528060005260406000206000915091509054906101000a900473ffffffffffffffffffffffffffffffffffffffff1681565b6000809054906101000a900473ffffffffffffffffffffffffffffffffffffffff1673ffffffffffffffffffffffffffffffffffffffff163373ffffffffffffffffffffffffffffffffffffffff16141515610e9057600080fd5b600073ffffffffffffffffffffffffffffffffffffffff168173ffffffffffffffffffffffffffffffffffffffff1614151515610ecc57600080fd5b80600160006101000a81548173ffffffffffffffffffffffffffffffffffffffff021916908373ffffffffffffffffffffffffffffffffffffffff16021790555050565b600080600383815481101515610f2257fe5b906000526020600020906004020190508060000160009054906101000a900473ffffffffffffffffffffffffffffffffffffffff16915050919050565b6000806000600384815481101515610f7357fe5b90600052602060002090600402019150816002015490508042811515610f9557fe5b0492505050919050565b600260149054906101000a900460ff1681565b6000806005600084815260200190815260200160002060009054906101000a900473ffffffffffffffffffffffffffffffffffffffff169050600073ffffffffffffffffffffffffffffffffffffffff168173ffffffffffffffffffffffffffffffffffffffff161415151561102757600080fd5b80915050919050565b600080600080600060038681548110151561104757fe5b906000526020600020906004020190508060000160009054906101000a900473ffffffffffffffffffffffffffffffffffffffff1694508060010160009054906101000a900473ffffffffffffffffffffffffffffffffffffffff169350806002015492508060030160009054906101000a900461ffff169150509193509193565b6000600660008373ffffffffffffffffffffffffffffffffffffffff1673ffffffffffffffffffffffffffffffffffffffff168152602001908152602001600020549050809050919050565b600080600080611123611970565b60008060009054906101000a900473ffffffffffffffffffffffffffffffffffffffff1673ffffffffffffffffffffffffffffffffffffffff163373ffffffffffffffffffffffffffffffffffffffff1614806111cd5750600160009054906101000a900473ffffffffffffffffffffffffffffffffffffffff1673ffffffffffffffffffffffffffffffffffffffff163373ffffffffffffffffffffffffffffffffffffffff16145b806112255750600260009054906101000a900473ffffffffffffffffffffffffffffffffffffffff1673ffffffffffffffffffffffffffffffffffffffff163373ffffffffffffffffffffffffffffffffffffffff16145b151561123057600080fd5b3394506000935060045492506080604051908101604052808673ffffffffffffffffffffffffffffffffffffffff1681526020018573ffffffffffffffffffffffffffffffffffffffff1681526020018481526020018861ffff1681525091506001600380548060010182816112a691906119c9565b9160005260206000209060040201600085909190915060008201518160000160006101000a81548173ffffffffffffffffffffffffffffffffffffffff021916908373ffffffffffffffffffffffffffffffffffffffff16021790555060208201518160010160006101000a81548173ffffffffffffffffffffffffffffffffffffffff021916908373ffffffffffffffffffffffffffffffffffffffff1602179055506040820151816002015560608201518160030160006101000a81548161ffff021916908361ffff1602179055505050039050611388600086836117de565b8095505050505050919050565b60076020528060005260406000206000915054906101000a900473ffffffffffffffffffffffffffffffffffffffff1681565b6000809054906101000a900473ffffffffffffffffffffffffffffffffffffffff1673ffffffffffffffffffffffffffffffffffffffff163373ffffffffffffffffffffffffffffffffffffffff1614806114705750600160009054906101000a900473ffffffffffffffffffffffffffffffffffffffff1673ffffffffffffffffffffffffffffffffffffffff163373ffffffffffffffffffffffffffffffffffffffff16145b806114c85750600260009054906101000a900473ffffffffffffffffffffffffffffffffffffffff1673ffffffffffffffffffffffffffffffffffffffff163373ffffffffffffffffffffffffffffffffffffffff16145b15156114d357600080fd5b600260149054906101000a900460ff161515156114ef57600080fd5b6001600260146101000a81548160ff021916908315150217905550565b6000809054906101000a900473ffffffffffffffffffffffffffffffffffffffff1681565b60045481565b600073ffffffffffffffffffffffffffffffffffffffff168273ffffffffffffffffffffffffffffffffffffffff161415151561157357600080fd5b3073ffffffffffffffffffffffffffffffffffffffff168273ffffffffffffffffffffffffffffffffffffffff16141515156115ae57600080fd5b6115b833826116b0565b15156115c357600080fd5b6115ce3383836117de565b5050565b60056020528060005260406000206000915054906101000a900473ffffffffffffffffffffffffffffffffffffffff1681565b60066020528060005260406000206000915090505481565b6000809054906101000a900473ffffffffffffffffffffffffffffffffffffffff1673ffffffffffffffffffffffffffffffffffffffff163373ffffffffffffffffffffffffffffffffffffffff1614151561167857600080fd5b600260149054906101000a900460ff16151561169357600080fd5b6000600260146101000a81548160ff021916908315150217905550565b60008273ffffffffffffffffffffffffffffffffffffffff166005600084815260200190815260200160002060009054906101000a900473ffffffffffffffffffffffffffffffffffffffff1673ffffffffffffffffffffffffffffffffffffffff1614905092915050565b806007600084815260200190815260200160002060006101000a81548173ffffffffffffffffffffffffffffffffffffffff021916908373ffffffffffffffffffffffffffffffffffffffff1602179055505050565b60008273ffffffffffffffffffffffffffffffffffffffff166007600084815260200190815260200160002060009054906101000a900473ffffffffffffffffffffffffffffffffffffffff1673ffffffffffffffffffffffffffffffffffffffff1614905092915050565b6000600660008473ffffffffffffffffffffffffffffffffffffffff1673ffffffffffffffffffffffffffffffffffffffff16815260200190815260200160002060008154809291906001019190505550826005600084815260200190815260200160002060006101000a81548173ffffffffffffffffffffffffffffffffffffffff021916908373ffffffffffffffffffffffffffffffffffffffff16021790555060038281548110151561189057fe5b90600052602060002090600402019050828160000160006101000a81548173ffffffffffffffffffffffffffffffffffffffff021916908373ffffffffffffffffffffffffffffffffffffffff160217905550600073ffffffffffffffffffffffffffffffffffffffff168473ffffffffffffffffffffffffffffffffffffffff1614151561196a57600660008573ffffffffffffffffffffffffffffffffffffffff1673ffffffffffffffffffffffffffffffffffffffff16815260200190815260200160002060008154809291906001900391905055505b50505050565b608060405190810160405280600073ffffffffffffffffffffffffffffffffffffffff168152602001600073ffffffffffffffffffffffffffffffffffffffff16815260200160008152602001600061ffff1681525090565b8154818355818115116119f6576004028160040283600052602060002091820191016119f591906119fb565b5b505050565b611a8291905b80821115611a7e57600080820160006101000a81549073ffffffffffffffffffffffffffffffffffffffff02191690556001820160006101000a81549073ffffffffffffffffffffffffffffffffffffffff021916905560028201600090556003820160006101000a81549061ffff021916905550600401611a01565b5090565b905600a165627a7a723058209d5434d4da7bd7b1f64786430f94c87720cd0fb9a0a9ef653f9e031921e34f9c0029",
  "source": "pragma solidity ^0.4.11;\n\n// @title ERC809 draft\n// @author stevenLee <steven@booklocal.in>\n// @date 1.6.17\n\n// Overview of contents\n\n    /** CONTRACTS ***\n\n    PermissionedAccess....................sets company/hotel permissions\n    RoomBase..............................defines attributes and methods for a room\n    RoomOwnership.........................ERC-721 interface for ownership\n    RoomRenting...........................ERC-809 interface for renting\n    */\n\n    /** VARIABLES ***\n\n    MIN_RENT_TIME.........................uint256 seconds\n    Room..................................struct for room state {price, renter, attributes}\n    rooms.................................Room[]\n    roomOwners_byIndex....................mapping(tokenId => owner)\n    transferApproval_byIndex..............mapping(tokenId => address)\n    numRooms_byOwner......................mapping(owner => numTokens)\n    reservations..........................mapping(tokenId => mapping(time => address))\n    */\n\n    /** METHODS ***\n\n    ### Non-Fungible ###\n    totalSupply().........................get total supply\n    ownerOf(tokenId)......................get owner of specific token\n    transfer(to, tokenId).................transfer ownership\n    transferFrom(from, to, tokenId).......transfer ownership on behalf of owner\n    approve(to, tokenId)..................approve someone else to transfer token\n    balanceOf(owner)......................find how many tokens someone owns\n\n    ### Renting ###\n    checkAvailable(tokenId, time).........check future availability of token\n    getRoomInfo(tokenId)..................get information about the room\n    reserve(tokenId, start, stop).........reserve future access to token\n    access(tokenId).......................access the token\n    settle(tokenId).......................remove access and settle funds\n    cancelReservation.....................cancel reservation\n\n    ### Room ###\n    addRoom(numBeds)......................add new room\n    getCurrentTime(tokenId)...............get minRentTime for a specific room\n    changeMinRental(tokenId, minRental)...change minimum rental unit for a token\n    changeNumBeds(tokenId, numBeds).......change number of beds\n    */\n\n// @title PermissionedAccess\n// @dev PermissionedAccess provides specific access controls\n//          anyone in the administrative team.\ncontract PermissionedAccess {\n    // Basic permission functionality.\n    // Doesn't do anything with pauses but probably should to handle bugs\n\n    // initalize address types\n    address public ceo;\n    address public cfo;\n    address public coo;\n\n    // allow contracts to pauses\n    bool public paused = false;\n\n    // modifier for only ceo\n    modifier onlyCEO() {\n        require(msg.sender == ceo);\n        _;\n    }\n\n    // modifier for only cfo\n    modifier onlyCFO() {\n        require(msg.sender == cfo);\n        _;\n    }\n\n    // modifier for only controls\n    modifier onlyCOO() {\n        require(msg.sender == coo);\n        _;\n    }\n\n    modifier onlyCLevel() {\n\n        require(\n            msg.sender == ceo ||\n            msg.sender == cfo ||\n            msg.sender == coo\n        );\n        _;\n    }\n\n    modifier whenPaused {\n        require(paused);\n        _;\n    }\n\n    modifier whenNotPaused {\n        require(!paused);\n        _;\n    }\n\n    function PermissionedAccess() public {\n        ceo = msg.sender;\n    }\n\n    // change ceo\n    // only ceo can change ceo\n    function setCEO(address _newCEO) external onlyCEO {\n        require(_newCEO != address(0));\n        ceo = _newCEO;\n    }\n\n    // change cfo\n    // only ceo can change cfo\n    function setCFO(address _newCFO) external onlyCEO {\n        require(_newCFO != address(0));\n        cfo = _newCFO;\n    }\n\n    // change coo\n    // only ceo can change coo\n    function setCOO(address _newCOO) external onlyCEO {\n        require(_newCOO != address(0));\n        coo = _newCOO;\n    }\n\n    // pause contract\n    function pause() external onlyCLevel whenNotPaused {\n        paused = true;\n    }\n\n    // unpause, only ceo\n    function unPause() external onlyCEO whenPaused {\n        paused = false;\n    }\n}\n\n// Room base defines room attributes, stores the rooms, and adds new rooms\ncontract RoomBase is PermissionedAccess {\n\n    /**\n    Define variables\n    */\n\n    // @dev main Room strucutre\n    struct Room {\n\n        // owner\n        address owner;\n\n        // renter\n        address renter;\n\n        // min rental\n        uint256 minRentTime;\n\n        // identify number of beds\n        uint16 numBeds;\n    }\n\n    // @dev init array of Room structs, called rooms\n    Room[] public rooms;\n\n    // @dev default minimum unit of rent is one day (in seconds)\n    uint256 public MIN_RENT_TIME = 3600*24;\n\n    // @dev mapping for \"tokenId\" assignment to owner\n    mapping (uint256 => address) public roomOwners_byIndex;\n\n    // @dev mapping to store total rooms owned\n    mapping (address => uint256) public numRooms_byOwner;\n\n    // @dev mapping for ERC721 approval to transfer\n    mapping (uint256 => address) public transferApproval_byIndex;\n\n    // @dev mapping for basic reservations\n    mapping (uint256 => mapping (uint256 => address)) public reservations;\n\n    /**\n    Define Functions\n    */\n    function addRoom(uint16 _numBeds) external onlyCLevel returns (uint256) {\n\n        address _owner = msg.sender;\n        address _renter = address(0);\n        uint256 _min = MIN_RENT_TIME;\n\n        // create new Room struct and store to memory\n        Room memory _room = Room({\n            owner: _owner,\n            renter: _renter,\n            minRentTime: _min,\n            numBeds: _numBeds\n        });\n\n        // push new room to rooms array\n        uint256 roomId = rooms.push(_room) - 1;\n\n        _transfer(0, _owner, roomId);\n\n        return roomId;\n    }\n\n    function getRoomInfo(uint256 _tokenId)\n        external\n        view\n        returns (address owner, address renter, uint256 minRentTime, uint16 numBeds)\n        {\n        Room storage room = rooms[_tokenId];\n\n        owner = room.owner;\n        renter = room.renter;\n        minRentTime = room.minRentTime;\n        numBeds = room.numBeds;\n    }\n\n    function changeMinRental(uint256 _tokenId, uint256 _newMin) external {\n        Room storage room = rooms[_tokenId];\n        require(msg.sender == room.owner);\n        room.minRentTime = _newMin;\n    }\n\n    function changeNumBeds(uint256 _tokenId, uint16 _beds) external {\n        Room storage room = rooms[_tokenId];\n        require(msg.sender == room.owner);\n        room.numBeds = _beds;\n    }\n\n    // get time\n    function getCurrentTime(uint256 _tokenId) external view returns (uint256 _time) {\n        Room storage room = rooms[_tokenId];\n        uint256 minRent = room.minRentTime;\n        _time = now/minRent;\n    }\n\n    // @dev internally transfer token to new owner\n    function _transfer(address _from, address _to, uint256 _tokenId) internal {\n\n        numRooms_byOwner[_to] ++;\n        roomOwners_byIndex[_tokenId] = _to;\n\n        Room storage r = rooms[_tokenId];\n        r.owner = _to;\n\n        if (_from != address(0)) {\n            numRooms_byOwner[_from]--;\n        }\n    }\n}\n\n// Room ownership adds ERC-721 interface to the room base\ncontract RoomOwnership is RoomBase {\n\n    /**\n    Define ERC-721 functions\n    */\n\n    // @dev find number of rooms (i.e. number of tokens)\n    function totalSupply() external view returns(uint256 supply){\n        supply = rooms.length;\n    }\n\n    // @dev find owner of specific room\n    function ownerOf(uint256 _tokenId) external view returns (address) {\n        address owner = roomOwners_byIndex[_tokenId];\n        require(owner != address(0));\n        return owner;\n    }\n\n    function ownerOf_2(uint256 _tokenId) external view returns (address owner) {\n        Room storage r = rooms[_tokenId];\n        owner = r.owner;\n    }\n\n    // @dev find total rooms owned by an address\n    function balanceOf(address _owner) public view returns (uint256 count) {\n        count = numRooms_byOwner[_owner];\n        return(count);\n    }\n\n    // @dev transfer\n    function transfer(address _to, uint256 _tokenId) external {\n\n        // require _to isn't something stupid\n        require(_to != address(0));\n        require(_to != address(this));\n\n        // make sure that the message sender actually owns token\n        require(_owns(msg.sender, _tokenId));\n\n        // transfer\n        _transfer(msg.sender, _to, _tokenId);\n    }\n\n    // @dev approval for room transfers\n    function approve(address _to, uint256 _tokenId) external {\n        require(_owns(msg.sender, _tokenId));\n        _approve(_tokenId, _to);\n    }\n\n    // @dev transfer from approved address\n    function transferFrom(address _from, address _to, uint256 _tokenId) external {\n        require (_to != address(0));\n        require (_to != address(this));\n        require (_approvedFor(msg.sender, _tokenId));\n        require (_owns(_from, _tokenId));\n\n        _transfer(_from, _to, _tokenId);\n    }\n\n    // @dev internally confirm owner of token\n    function _owns(address _claimant, uint256 _tokenId) internal view returns(bool) {\n        return roomOwners_byIndex[_tokenId] == _claimant;\n    }\n\n    // @dev internal approval function\n    function _approve(uint256 _tokenId, address _approved) internal {\n        transferApproval_byIndex[_tokenId] = _approved;\n    }\n\n    // @dev internal check approval\n    function _approvedFor(address _claimer, uint256 _tokenId) internal view returns(bool) {\n        return transferApproval_byIndex[_tokenId] == _claimer;\n    }\n\n    // @dev internal check if reservation date is _isFuture\n    function _isFuture(uint256 _time) internal view returns (bool future) {\n        uint256 _now = now/MIN_RENT_TIME;\n\n        return _time>_now;\n    }\n}\n\n// room renting adds ERC-809 renting interface to room ownership\ncontract RoomRenting is RoomOwnership {\n\n    // constructor sets the ceo of bookLocal\n    function RoomRenting() public {\n        ceo = msg.sender;\n    }\n\n    /**\n    Define ERC-809 functions\n    */\n\n    // @dev reserve future access to an asset\n    function reserve(uint256 _tokenId, uint256 _start, uint256 _stop) external returns (bool){\n        address guest = msg.sender;\n\n        // comment out for debug and testing\n        // require(_isFuture(_start));\n        require(_start<_stop);\n\n        // check availability (for all dates in range)\n        for (uint i = _start; i <= _stop; i ++) {\n            if (! _isAvailable(_tokenId, i)) {\n                return false;\n            }\n        }\n\n        // make reservation\n        for (i = _start; i <= _stop; i ++) {\n            reservations[_tokenId][i] = guest;\n        }\n\n        return true;\n    }\n\n    // @dev access your asset\n    function access(uint256 _tokenId) external {\n\n        // convert time to minimum rental units\n        Room storage room = rooms[_tokenId];\n        uint256 minRentTime = room.minRentTime;\n        uint256 _time = now/minRentTime;\n\n        // require permissions\n        // 1) owner\n        // 2) reserved guest\n        require(msg.sender == reservations[_tokenId][_time] || msg.sender == roomOwners_byIndex[_tokenId]);\n        room.renter = reservations[_tokenId][_time];\n    }\n\n    // @dev settle\n    function settle(uint256 _tokenId) external {\n\n        Room storage room = rooms[_tokenId];\n\n        address renter = room.renter;\n\n        if (msg.sender == roomOwners_byIndex[_tokenId] || msg.sender == renter) {\n            room.renter = address(0);\n        }\n    }\n\n    // @dev cancel reservation\n    function cancelReservation(uint256 _tokenId, uint256 _start, uint256 _stop) external {\n\n        // only cancle future reservations\n        require(_isFuture(_start));\n        require(_start<_stop);\n\n        // only room owner or renter address can cancel\n        if (msg.sender != roomOwners_byIndex[_tokenId]) {\n            for (uint i = _start; i <= _stop; i ++) {\n                require(msg.sender == _getRenter(_tokenId, i));\n            }\n        }\n\n        for (i = _start; i <= _stop; i ++) {\n            delete(reservations[_tokenId][i]);\n        }\n    }\n\n    // @dev lookup function\n    function checkAvailable(uint256 _tokenId, uint256 _date) external view returns (bool) {\n        return reservations[_tokenId][_date] == address(0);\n    }\n\n    // @dev internal check if reservation date is _isFuture\n    function _isFuture(uint256 _time) internal view returns (bool future) {\n        uint256 _now = now/MIN_RENT_TIME;\n\n        return _time>_now;\n    }\n\n    // @dev check availability\n    function _isAvailable(uint256 _tokenId, uint256 _time) internal view returns (bool) {\n        return reservations[_tokenId][_time] == address(0);\n    }\n\n    // @dev find renter of token at specific time\n    function _getRenter(uint256 _tokenId, uint256 _time)\n        internal\n        view\n        returns (address _renter)\n        {\n\n        _renter = reservations[_tokenId][_time];\n        }\n}\n",
  "sourcePath": "/Users/Ghost/Documents/proofOfConcept/contracts/Hotel.sol",
  "compiler": {
    "name": "solc",
    "version": "0.4.18+commit.9cf6e910.Emscripten.clang"
  },
  "schemaVersion": "1.0.1",
  "updatedAt": "2018-02-04T20:16:56.378Z"
}