{
  "contractName": "RoomOwnership",
  "abi": [
    {
      "constant": false,
      "inputs": [
        {
          "name": "_tokenId",
          "type": "uint256"
        },
        {
          "name": "_beds",
          "type": "uint16"
        }
      ],
      "name": "changeNumBeds",
      "outputs": [],
      "payable": false,
      "stateMutability": "nonpayable",
      "type": "function"
    },
    {
      "constant": true,
      "inputs": [],
      "name": "coo",
      "outputs": [
        {
          "name": "",
          "type": "address"
        }
      ],
      "payable": false,
      "stateMutability": "view",
      "type": "function"
    },
    {
      "constant": false,
      "inputs": [
        {
          "name": "_to",
          "type": "address"
        },
        {
          "name": "_tokenId",
          "type": "uint256"
        }
      ],
      "name": "approve",
      "outputs": [],
      "payable": false,
      "stateMutability": "nonpayable",
      "type": "function"
    },
    {
      "constant": true,
      "inputs": [],
      "name": "totalSupply",
      "outputs": [
        {
          "name": "supply",
          "type": "uint256"
        }
      ],
      "payable": false,
      "stateMutability": "view",
      "type": "function"
    },
    {
      "constant": true,
      "inputs": [
        {
          "name": "",
          "type": "uint256"
        }
      ],
      "name": "rooms",
      "outputs": [
        {
          "name": "owner",
          "type": "address"
        },
        {
          "name": "renter",
          "type": "address"
        },
        {
          "name": "minRentTime",
          "type": "uint256"
        },
        {
          "name": "numBeds",
          "type": "uint16"
        }
      ],
      "payable": false,
      "stateMutability": "view",
      "type": "function"
    },
    {
      "constant": true,
      "inputs": [],
      "name": "cfo",
      "outputs": [
        {
          "name": "",
          "type": "address"
        }
      ],
      "payable": false,
      "stateMutability": "view",
      "type": "function"
    },
    {
      "constant": false,
      "inputs": [
        {
          "name": "_from",
          "type": "address"
        },
        {
          "name": "_to",
          "type": "address"
        },
        {
          "name": "_tokenId",
          "type": "uint256"
        }
      ],
      "name": "transferFrom",
      "outputs": [],
      "payable": false,
      "stateMutability": "nonpayable",
      "type": "function"
    },
    {
      "constant": false,
      "inputs": [
        {
          "name": "_newCEO",
          "type": "address"
        }
      ],
      "name": "setCEO",
      "outputs": [],
      "payable": false,
      "stateMutability": "nonpayable",
      "type": "function"
    },
    {
      "constant": false,
      "inputs": [
        {
          "name": "_newCOO",
          "type": "address"
        }
      ],
      "name": "setCOO",
      "outputs": [],
      "payable": false,
      "stateMutability": "nonpayable",
      "type": "function"
    },
    {
      "constant": false,
      "inputs": [
        {
          "name": "_tokenId",
          "type": "uint256"
        },
        {
          "name": "_newMin",
          "type": "uint256"
        }
      ],
      "name": "changeMinRental",
      "outputs": [],
      "payable": false,
      "stateMutability": "nonpayable",
      "type": "function"
    },
    {
      "constant": true,
      "inputs": [
        {
          "name": "",
          "type": "uint256"
        },
        {
          "name": "",
          "type": "uint256"
        }
      ],
      "name": "reservations",
      "outputs": [
        {
          "name": "",
          "type": "address"
        }
      ],
      "payable": false,
      "stateMutability": "view",
      "type": "function"
    },
    {
      "constant": false,
      "inputs": [
        {
          "name": "_newCFO",
          "type": "address"
        }
      ],
      "name": "setCFO",
      "outputs": [],
      "payable": false,
      "stateMutability": "nonpayable",
      "type": "function"
    },
    {
      "constant": true,
      "inputs": [
        {
          "name": "_tokenId",
          "type": "uint256"
        }
      ],
      "name": "ownerOf_2",
      "outputs": [
        {
          "name": "owner",
          "type": "address"
        }
      ],
      "payable": false,
      "stateMutability": "view",
      "type": "function"
    },
    {
      "constant": true,
      "inputs": [
        {
          "name": "_tokenId",
          "type": "uint256"
        }
      ],
      "name": "getCurrentTime",
      "outputs": [
        {
          "name": "_time",
          "type": "uint256"
        }
      ],
      "payable": false,
      "stateMutability": "view",
      "type": "function"
    },
    {
      "constant": true,
      "inputs": [],
      "name": "paused",
      "outputs": [
        {
          "name": "",
          "type": "bool"
        }
      ],
      "payable": false,
      "stateMutability": "view",
      "type": "function"
    },
    {
      "constant": true,
      "inputs": [
        {
          "name": "_tokenId",
          "type": "uint256"
        }
      ],
      "name": "ownerOf",
      "outputs": [
        {
          "name": "",
          "type": "address"
        }
      ],
      "payable": false,
      "stateMutability": "view",
      "type": "function"
    },
    {
      "constant": true,
      "inputs": [
        {
          "name": "_tokenId",
          "type": "uint256"
        }
      ],
      "name": "getRoomInfo",
      "outputs": [
        {
          "name": "owner",
          "type": "address"
        },
        {
          "name": "renter",
          "type": "address"
        },
        {
          "name": "minRentTime",
          "type": "uint256"
        },
        {
          "name": "numBeds",
          "type": "uint16"
        }
      ],
      "payable": false,
      "stateMutability": "view",
      "type": "function"
    },
    {
      "constant": true,
      "inputs": [
        {
          "name": "_owner",
          "type": "address"
        }
      ],
      "name": "balanceOf",
      "outputs": [
        {
          "name": "count",
          "type": "uint256"
        }
      ],
      "payable": false,
      "stateMutability": "view",
      "type": "function"
    },
    {
      "constant": false,
      "inputs": [
        {
          "name": "_numBeds",
          "type": "uint16"
        }
      ],
      "name": "addRoom",
      "outputs": [
        {
          "name": "",
          "type": "uint256"
        }
      ],
      "payable": false,
      "stateMutability": "nonpayable",
      "type": "function"
    },
    {
      "constant": true,
      "inputs": [
        {
          "name": "",
          "type": "uint256"
        }
      ],
      "name": "transferApproval_byIndex",
      "outputs": [
        {
          "name": "",
          "type": "address"
        }
      ],
      "payable": false,
      "stateMutability": "view",
      "type": "function"
    },
    {
      "constant": false,
      "inputs": [],
      "name": "pause",
      "outputs": [],
      "payable": false,
      "stateMutability": "nonpayable",
      "type": "function"
    },
    {
      "constant": true,
      "inputs": [],
      "name": "ceo",
      "outputs": [
        {
          "name": "",
          "type": "address"
        }
      ],
      "payable": false,
      "stateMutability": "view",
      "type": "function"
    },
    {
      "constant": true,
      "inputs": [],
      "name": "MIN_RENT_TIME",
      "outputs": [
        {
          "name": "",
          "type": "uint256"
        }
      ],
      "payable": false,
      "stateMutability": "view",
      "type": "function"
    },
    {
      "constant": false,
      "inputs": [
        {
          "name": "_to",
          "type": "address"
        },
        {
          "name": "_tokenId",
          "type": "uint256"
        }
      ],
      "name": "transfer",
      "outputs": [],
      "payable": false,
      "stateMutability": "nonpayable",
      "type": "function"
    },
    {
      "constant": true,
      "inputs": [
        {
          "name": "",
          "type": "uint256"
        }
      ],
      "name": "roomOwners_byIndex",
      "outputs": [
        {
          "name": "",
          "type": "address"
        }
      ],
      "payable": false,
      "stateMutability": "view",
      "type": "function"
    },
    {
      "constant": true,
      "inputs": [
        {
          "name": "_tokenId",
          "type": "uint256"
        }
      ],
      "name": "getNumBeds",
      "outputs": [
        {
          "name": "numBeds",
          "type": "uint16"
        }
      ],
      "payable": false,
      "stateMutability": "view",
      "type": "function"
    },
    {
      "constant": true,
      "inputs": [
        {
          "name": "",
          "type": "address"
        }
      ],
      "name": "numRooms_byOwner",
      "outputs": [
        {
          "name": "",
          "type": "uint256"
        }
      ],
      "payable": false,
      "stateMutability": "view",
      "type": "function"
    },
    {
      "constant": true,
      "inputs": [],
      "name": "getCLevel",
      "outputs": [
        {
          "name": "_ceo",
          "type": "address"
        },
        {
          "name": "_cfo",
          "type": "address"
        },
        {
          "name": "_coo",
          "type": "address"
        }
      ],
      "payable": false,
      "stateMutability": "view",
      "type": "function"
    },
    {
      "constant": false,
      "inputs": [],
      "name": "unPause",
      "outputs": [],
      "payable": false,
      "stateMutability": "nonpayable",
      "type": "function"
    }
  ],
  "bytecode": "0x60606040526000600260146101000a81548160ff02191690831515021790555062015180600455336000806101000a81548173ffffffffffffffffffffffffffffffffffffffff021916908373ffffffffffffffffffffffffffffffffffffffff160217905550611c76806100756000396000f300606060405260043610610175576000357c0100000000000000000000000000000000000000000000000000000000900463ffffffff1680630335e0fc1461017a57806307cdee49146101aa578063095ea7b3146101ff57806318160ddd146102415780631bae0ac81461026a5780631ed203471461031657806323b872dd1461036b57806327d7874c146103cc5780632ba73c15146104055780632ea665781461043e57806330662b7b1461046a5780634e0a3379146104d65780634f369e731461050f578063595bb90f146105725780635c975abb146105a95780636352211e146105d65780636790d2b51461063957806370a08231146106e55780637ba6828a146107325780637d89b7c51461076d5780638456cb59146107d0578063908921fc146107e5578063a6dfed691461083a578063a9059cbb14610863578063b858da35146108a5578063bdf1e36614610908578063ca184a2514610947578063eca5d2d814610994578063f7b188a514610a4f575b600080fd5b341561018557600080fd5b6101a8600480803590602001909190803561ffff16906020019091905050610a64565b005b34156101b557600080fd5b6101bd610b07565b604051808273ffffffffffffffffffffffffffffffffffffffff1673ffffffffffffffffffffffffffffffffffffffff16815260200191505060405180910390f35b341561020a57600080fd5b61023f600480803573ffffffffffffffffffffffffffffffffffffffff16906020019091908035906020019091905050610b2d565b005b341561024c57600080fd5b610254610b50565b6040518082815260200191505060405180910390f35b341561027557600080fd5b61028b6004808035906020019091905050610b5d565b604051808573ffffffffffffffffffffffffffffffffffffffff1673ffffffffffffffffffffffffffffffffffffffff1681526020018473ffffffffffffffffffffffffffffffffffffffff1673ffffffffffffffffffffffffffffffffffffffff1681526020018381526020018261ffff1661ffff16815260200194505050505060405180910390f35b341561032157600080fd5b610329610bea565b604051808273ffffffffffffffffffffffffffffffffffffffff1673ffffffffffffffffffffffffffffffffffffffff16815260200191505060405180910390f35b341561037657600080fd5b6103ca600480803573ffffffffffffffffffffffffffffffffffffffff1690602001909190803573ffffffffffffffffffffffffffffffffffffffff16906020019091908035906020019091905050610c10565b005b34156103d757600080fd5b610403600480803573ffffffffffffffffffffffffffffffffffffffff16906020019091905050610cc1565b005b341561041057600080fd5b61043c600480803573ffffffffffffffffffffffffffffffffffffffff16906020019091905050610d9b565b005b341561044957600080fd5b6104686004808035906020019091908035906020019091905050610e76565b005b341561047557600080fd5b6104946004808035906020019091908035906020019091905050610f03565b604051808273ffffffffffffffffffffffffffffffffffffffff1673ffffffffffffffffffffffffffffffffffffffff16815260200191505060405180910390f35b34156104e157600080fd5b61050d600480803573ffffffffffffffffffffffffffffffffffffffff16906020019091905050610f45565b005b341561051a57600080fd5b6105306004808035906020019091905050611020565b604051808273ffffffffffffffffffffffffffffffffffffffff1673ffffffffffffffffffffffffffffffffffffffff16815260200191505060405180910390f35b341561057d57600080fd5b610593600480803590602001909190505061106f565b6040518082815260200191505060405180910390f35b34156105b457600080fd5b6105bc6110af565b604051808215151515815260200191505060405180910390f35b34156105e157600080fd5b6105f760048080359060200190919050506110c2565b604051808273ffffffffffffffffffffffffffffffffffffffff1673ffffffffffffffffffffffffffffffffffffffff16815260200191505060405180910390f35b341561064457600080fd5b61065a6004808035906020019091905050611140565b604051808573ffffffffffffffffffffffffffffffffffffffff1673ffffffffffffffffffffffffffffffffffffffff1681526020018473ffffffffffffffffffffffffffffffffffffffff1673ffffffffffffffffffffffffffffffffffffffff1681526020018381526020018261ffff1661ffff16815260200194505050505060405180910390f35b34156106f057600080fd5b61071c600480803573ffffffffffffffffffffffffffffffffffffffff169060200190919050506111d9565b6040518082815260200191505060405180910390f35b341561073d57600080fd5b610757600480803561ffff16906020019091905050611225565b6040518082815260200191505060405180910390f35b341561077857600080fd5b61078e60048080359060200190919050506114a5565b604051808273ffffffffffffffffffffffffffffffffffffffff1673ffffffffffffffffffffffffffffffffffffffff16815260200191505060405180910390f35b34156107db57600080fd5b6107e36114d8565b005b34156107f057600080fd5b6107f861161c565b604051808273ffffffffffffffffffffffffffffffffffffffff1673ffffffffffffffffffffffffffffffffffffffff16815260200191505060405180910390f35b341561084557600080fd5b61084d611641565b6040518082815260200191505060405180910390f35b341561086e57600080fd5b6108a3600480803573ffffffffffffffffffffffffffffffffffffffff16906020019091908035906020019091905050611647565b005b34156108b057600080fd5b6108c660048080359060200190919050506116e2565b604051808273ffffffffffffffffffffffffffffffffffffffff1673ffffffffffffffffffffffffffffffffffffffff16815260200191505060405180910390f35b341561091357600080fd5b6109296004808035906020019091905050611715565b604051808261ffff1661ffff16815260200191505060405180910390f35b341561095257600080fd5b61097e600480803573ffffffffffffffffffffffffffffffffffffffff16906020019091905050611752565b6040518082815260200191505060405180910390f35b341561099f57600080fd5b6109a761176a565b604051808473ffffffffffffffffffffffffffffffffffffffff1673ffffffffffffffffffffffffffffffffffffffff1681526020018373ffffffffffffffffffffffffffffffffffffffff1673ffffffffffffffffffffffffffffffffffffffff1681526020018273ffffffffffffffffffffffffffffffffffffffff1673ffffffffffffffffffffffffffffffffffffffff168152602001935050505060405180910390f35b3415610a5a57600080fd5b610a626117e2565b005b6000600383815481101515610a7557fe5b906000526020600020906004020190508060000160009054906101000a900473ffffffffffffffffffffffffffffffffffffffff1673ffffffffffffffffffffffffffffffffffffffff163373ffffffffffffffffffffffffffffffffffffffff16141515610ae357600080fd5b818160030160006101000a81548161ffff021916908361ffff160217905550505050565b600260009054906101000a900473ffffffffffffffffffffffffffffffffffffffff1681565b610b373382611875565b1515610b4257600080fd5b610b4c81836118e1565b5050565b6000600380549050905090565b600381815481101515610b6c57fe5b90600052602060002090600402016000915090508060000160009054906101000a900473ffffffffffffffffffffffffffffffffffffffff16908060010160009054906101000a900473ffffffffffffffffffffffffffffffffffffffff16908060020154908060030160009054906101000a900461ffff16905084565b600160009054906101000a900473ffffffffffffffffffffffffffffffffffffffff1681565b600073ffffffffffffffffffffffffffffffffffffffff168273ffffffffffffffffffffffffffffffffffffffff1614151515610c4c57600080fd5b3073ffffffffffffffffffffffffffffffffffffffff168273ffffffffffffffffffffffffffffffffffffffff1614151515610c8757600080fd5b610c913382611937565b1515610c9c57600080fd5b610ca68382611875565b1515610cb157600080fd5b610cbc8383836119a3565b505050565b6000809054906101000a900473ffffffffffffffffffffffffffffffffffffffff1673ffffffffffffffffffffffffffffffffffffffff163373ffffffffffffffffffffffffffffffffffffffff16141515610d1c57600080fd5b600073ffffffffffffffffffffffffffffffffffffffff168173ffffffffffffffffffffffffffffffffffffffff1614151515610d5857600080fd5b806000806101000a81548173ffffffffffffffffffffffffffffffffffffffff021916908373ffffffffffffffffffffffffffffffffffffffff16021790555050565b6000809054906101000a900473ffffffffffffffffffffffffffffffffffffffff1673ffffffffffffffffffffffffffffffffffffffff163373ffffffffffffffffffffffffffffffffffffffff16141515610df657600080fd5b600073ffffffffffffffffffffffffffffffffffffffff168173ffffffffffffffffffffffffffffffffffffffff1614151515610e3257600080fd5b80600260006101000a81548173ffffffffffffffffffffffffffffffffffffffff021916908373ffffffffffffffffffffffffffffffffffffffff16021790555050565b6000600383815481101515610e8757fe5b906000526020600020906004020190508060000160009054906101000a900473ffffffffffffffffffffffffffffffffffffffff1673ffffffffffffffffffffffffffffffffffffffff163373ffffffffffffffffffffffffffffffffffffffff16141515610ef557600080fd5b818160020181905550505050565b60086020528160005260406000206020528060005260406000206000915091509054906101000a900473ffffffffffffffffffffffffffffffffffffffff1681565b6000809054906101000a900473ffffffffffffffffffffffffffffffffffffffff1673ffffffffffffffffffffffffffffffffffffffff163373ffffffffffffffffffffffffffffffffffffffff16141515610fa057600080fd5b600073ffffffffffffffffffffffffffffffffffffffff168173ffffffffffffffffffffffffffffffffffffffff1614151515610fdc57600080fd5b80600160006101000a81548173ffffffffffffffffffffffffffffffffffffffff021916908373ffffffffffffffffffffffffffffffffffffffff16021790555050565b60008060038381548110151561103257fe5b906000526020600020906004020190508060000160009054906101000a900473ffffffffffffffffffffffffffffffffffffffff16915050919050565b600080600060038481548110151561108357fe5b906000526020600020906004020191508160020154905080428115156110a557fe5b0492505050919050565b600260149054906101000a900460ff1681565b6000806005600084815260200190815260200160002060009054906101000a900473ffffffffffffffffffffffffffffffffffffffff169050600073ffffffffffffffffffffffffffffffffffffffff168173ffffffffffffffffffffffffffffffffffffffff161415151561113757600080fd5b80915050919050565b600080600080600060038681548110151561115757fe5b906000526020600020906004020190508060000160009054906101000a900473ffffffffffffffffffffffffffffffffffffffff1694508060010160009054906101000a900473ffffffffffffffffffffffffffffffffffffffff169350806002015492508060030160009054906101000a900461ffff169150509193509193565b6000600660008373ffffffffffffffffffffffffffffffffffffffff1673ffffffffffffffffffffffffffffffffffffffff168152602001908152602001600020549050809050919050565b600080600080611233611b35565b60008060009054906101000a900473ffffffffffffffffffffffffffffffffffffffff1673ffffffffffffffffffffffffffffffffffffffff163373ffffffffffffffffffffffffffffffffffffffff1614806112dd5750600160009054906101000a900473ffffffffffffffffffffffffffffffffffffffff1673ffffffffffffffffffffffffffffffffffffffff163373ffffffffffffffffffffffffffffffffffffffff16145b806113355750600260009054906101000a900473ffffffffffffffffffffffffffffffffffffffff1673ffffffffffffffffffffffffffffffffffffffff163373ffffffffffffffffffffffffffffffffffffffff16145b151561134057600080fd5b3394506000935060045492506080604051908101604052808673ffffffffffffffffffffffffffffffffffffffff1681526020018573ffffffffffffffffffffffffffffffffffffffff1681526020018481526020018861ffff1681525091506001600380548060010182816113b69190611b8e565b9160005260206000209060040201600085909190915060008201518160000160006101000a81548173ffffffffffffffffffffffffffffffffffffffff021916908373ffffffffffffffffffffffffffffffffffffffff16021790555060208201518160010160006101000a81548173ffffffffffffffffffffffffffffffffffffffff021916908373ffffffffffffffffffffffffffffffffffffffff1602179055506040820151816002015560608201518160030160006101000a81548161ffff021916908361ffff1602179055505050039050611498600086836119a3565b8095505050505050919050565b60076020528060005260406000206000915054906101000a900473ffffffffffffffffffffffffffffffffffffffff1681565b6000809054906101000a900473ffffffffffffffffffffffffffffffffffffffff1673ffffffffffffffffffffffffffffffffffffffff163373ffffffffffffffffffffffffffffffffffffffff1614806115805750600160009054906101000a900473ffffffffffffffffffffffffffffffffffffffff1673ffffffffffffffffffffffffffffffffffffffff163373ffffffffffffffffffffffffffffffffffffffff16145b806115d85750600260009054906101000a900473ffffffffffffffffffffffffffffffffffffffff1673ffffffffffffffffffffffffffffffffffffffff163373ffffffffffffffffffffffffffffffffffffffff16145b15156115e357600080fd5b600260149054906101000a900460ff161515156115ff57600080fd5b6001600260146101000a81548160ff021916908315150217905550565b6000809054906101000a900473ffffffffffffffffffffffffffffffffffffffff1681565b60045481565b600073ffffffffffffffffffffffffffffffffffffffff168273ffffffffffffffffffffffffffffffffffffffff161415151561168357600080fd5b3073ffffffffffffffffffffffffffffffffffffffff168273ffffffffffffffffffffffffffffffffffffffff16141515156116be57600080fd5b6116c83382611875565b15156116d357600080fd5b6116de3383836119a3565b5050565b60056020528060005260406000206000915054906101000a900473ffffffffffffffffffffffffffffffffffffffff1681565b60008060038381548110151561172757fe5b906000526020600020906004020190508060030160009054906101000a900461ffff16915050919050565b60066020528060005260406000206000915090505481565b60008060008060009054906101000a900473ffffffffffffffffffffffffffffffffffffffff169250600160009054906101000a900473ffffffffffffffffffffffffffffffffffffffff169150600260009054906101000a900473ffffffffffffffffffffffffffffffffffffffff169050909192565b6000809054906101000a900473ffffffffffffffffffffffffffffffffffffffff1673ffffffffffffffffffffffffffffffffffffffff163373ffffffffffffffffffffffffffffffffffffffff1614151561183d57600080fd5b600260149054906101000a900460ff16151561185857600080fd5b6000600260146101000a81548160ff021916908315150217905550565b60008273ffffffffffffffffffffffffffffffffffffffff166005600084815260200190815260200160002060009054906101000a900473ffffffffffffffffffffffffffffffffffffffff1673ffffffffffffffffffffffffffffffffffffffff1614905092915050565b806007600084815260200190815260200160002060006101000a81548173ffffffffffffffffffffffffffffffffffffffff021916908373ffffffffffffffffffffffffffffffffffffffff1602179055505050565b60008273ffffffffffffffffffffffffffffffffffffffff166007600084815260200190815260200160002060009054906101000a900473ffffffffffffffffffffffffffffffffffffffff1673ffffffffffffffffffffffffffffffffffffffff1614905092915050565b6000600660008473ffffffffffffffffffffffffffffffffffffffff1673ffffffffffffffffffffffffffffffffffffffff16815260200190815260200160002060008154809291906001019190505550826005600084815260200190815260200160002060006101000a81548173ffffffffffffffffffffffffffffffffffffffff021916908373ffffffffffffffffffffffffffffffffffffffff160217905550600382815481101515611a5557fe5b90600052602060002090600402019050828160000160006101000a81548173ffffffffffffffffffffffffffffffffffffffff021916908373ffffffffffffffffffffffffffffffffffffffff160217905550600073ffffffffffffffffffffffffffffffffffffffff168473ffffffffffffffffffffffffffffffffffffffff16141515611b2f57600660008573ffffffffffffffffffffffffffffffffffffffff1673ffffffffffffffffffffffffffffffffffffffff16815260200190815260200160002060008154809291906001900391905055505b50505050565b608060405190810160405280600073ffffffffffffffffffffffffffffffffffffffff168152602001600073ffffffffffffffffffffffffffffffffffffffff16815260200160008152602001600061ffff1681525090565b815481835581811511611bbb57600402816004028360005260206000209182019101611bba9190611bc0565b5b505050565b611c4791905b80821115611c4357600080820160006101000a81549073ffffffffffffffffffffffffffffffffffffffff02191690556001820160006101000a81549073ffffffffffffffffffffffffffffffffffffffff021916905560028201600090556003820160006101000a81549061ffff021916905550600401611bc6565b5090565b905600a165627a7a72305820633a43cf136baf0570d77da9a32eb272384cb40fed2503e526600d24063e6e520029",
  "source": "pragma solidity ^0.4.17;\n\nimport './RoomBase.sol';\n\n// Room ownership adds ERC-721 interface to the room base\ncontract RoomOwnership is RoomBase {\n\n    /**\n    Define ERC-721 functions\n    */\n\n    // @dev find number of rooms (i.e. number of tokens)\n    function totalSupply() external view returns(uint256 supply){\n        supply = rooms.length;\n    }\n\n    // @dev find owner of specific room\n    function ownerOf(uint256 _tokenId) external view returns (address) {\n        address owner = roomOwners_byIndex[_tokenId];\n        require(owner != address(0));\n        return owner;\n    }\n\n    function ownerOf_2(uint256 _tokenId) external view returns (address owner) {\n        Room storage r = rooms[_tokenId];\n        owner = r.owner;\n    }\n\n    // @dev find total rooms owned by an address\n    function balanceOf(address _owner) public view returns (uint256 count) {\n        count = numRooms_byOwner[_owner];\n        return(count);\n    }\n\n    // @dev transfer\n    function transfer(address _to, uint256 _tokenId) external {\n\n        // require _to isn't something stupid\n        require(_to != address(0));\n        require(_to != address(this));\n\n        // make sure that the message sender actually owns token\n        require(_owns(msg.sender, _tokenId));\n\n        // transfer\n        _transfer(msg.sender, _to, _tokenId);\n    }\n\n    // @dev approval for room transfers\n    function approve(address _to, uint256 _tokenId) external {\n        require(_owns(msg.sender, _tokenId));\n        _approve(_tokenId, _to);\n    }\n\n    // @dev transfer from approved address\n    function transferFrom(address _from, address _to, uint256 _tokenId) external {\n        require (_to != address(0));\n        require (_to != address(this));\n        require (_approvedFor(msg.sender, _tokenId));\n        require (_owns(_from, _tokenId));\n\n        _transfer(_from, _to, _tokenId);\n    }\n\n    // @dev internally confirm owner of token\n    function _owns(address _claimant, uint256 _tokenId) internal view returns(bool) {\n        return roomOwners_byIndex[_tokenId] == _claimant;\n    }\n\n    // @dev internal approval function\n    function _approve(uint256 _tokenId, address _approved) internal {\n        transferApproval_byIndex[_tokenId] = _approved;\n    }\n\n    // @dev internal check approval\n    function _approvedFor(address _claimer, uint256 _tokenId) internal view returns(bool) {\n        return transferApproval_byIndex[_tokenId] == _claimer;\n    }\n\n    // @dev internal check if reservation date is _isFuture\n    function _isFuture(uint256 _time) internal view returns (bool future) {\n        uint256 _now = now/MIN_RENT_TIME;\n\n        return _time>_now;\n    }\n}\n",
  "sourcePath": "/Users/stevelee/Documents/BookLocal/proofOfConcept/contracts/RoomOwnership.sol",
  "compiler": {
    "name": "solc",
    "version": "0.4.18+commit.9cf6e910.Emscripten.clang"
  },
  "schemaVersion": "1.0.1",
  "updatedAt": "2018-02-10T21:24:26.384Z"
}