{
  "contractName": "RoomBase",
  "abi": [
    {
      "constant": false,
      "inputs": [
        {
          "name": "_tokenId",
          "type": "uint256"
        },
        {
          "name": "_beds",
          "type": "uint16"
        }
      ],
      "name": "changeNumBeds",
      "outputs": [],
      "payable": false,
      "stateMutability": "nonpayable",
      "type": "function"
    },
    {
      "constant": true,
      "inputs": [],
      "name": "coo",
      "outputs": [
        {
          "name": "",
          "type": "address"
        }
      ],
      "payable": false,
      "stateMutability": "view",
      "type": "function"
    },
    {
      "constant": true,
      "inputs": [
        {
          "name": "",
          "type": "uint256"
        }
      ],
      "name": "rooms",
      "outputs": [
        {
          "name": "owner",
          "type": "address"
        },
        {
          "name": "renter",
          "type": "address"
        },
        {
          "name": "minRentTime",
          "type": "uint256"
        },
        {
          "name": "numBeds",
          "type": "uint16"
        }
      ],
      "payable": false,
      "stateMutability": "view",
      "type": "function"
    },
    {
      "constant": true,
      "inputs": [],
      "name": "cfo",
      "outputs": [
        {
          "name": "",
          "type": "address"
        }
      ],
      "payable": false,
      "stateMutability": "view",
      "type": "function"
    },
    {
      "constant": false,
      "inputs": [
        {
          "name": "_newCEO",
          "type": "address"
        }
      ],
      "name": "setCEO",
      "outputs": [],
      "payable": false,
      "stateMutability": "nonpayable",
      "type": "function"
    },
    {
      "constant": false,
      "inputs": [
        {
          "name": "_newCOO",
          "type": "address"
        }
      ],
      "name": "setCOO",
      "outputs": [],
      "payable": false,
      "stateMutability": "nonpayable",
      "type": "function"
    },
    {
      "constant": false,
      "inputs": [
        {
          "name": "_tokenId",
          "type": "uint256"
        },
        {
          "name": "_newMin",
          "type": "uint256"
        }
      ],
      "name": "changeMinRental",
      "outputs": [],
      "payable": false,
      "stateMutability": "nonpayable",
      "type": "function"
    },
    {
      "constant": true,
      "inputs": [
        {
          "name": "",
          "type": "uint256"
        },
        {
          "name": "",
          "type": "uint256"
        }
      ],
      "name": "reservations",
      "outputs": [
        {
          "name": "",
          "type": "address"
        }
      ],
      "payable": false,
      "stateMutability": "view",
      "type": "function"
    },
    {
      "constant": false,
      "inputs": [
        {
          "name": "_newCFO",
          "type": "address"
        }
      ],
      "name": "setCFO",
      "outputs": [],
      "payable": false,
      "stateMutability": "nonpayable",
      "type": "function"
    },
    {
      "constant": true,
      "inputs": [
        {
          "name": "_tokenId",
          "type": "uint256"
        }
      ],
      "name": "getCurrentTime",
      "outputs": [
        {
          "name": "_time",
          "type": "uint256"
        }
      ],
      "payable": false,
      "stateMutability": "view",
      "type": "function"
    },
    {
      "constant": true,
      "inputs": [],
      "name": "paused",
      "outputs": [
        {
          "name": "",
          "type": "bool"
        }
      ],
      "payable": false,
      "stateMutability": "view",
      "type": "function"
    },
    {
      "constant": true,
      "inputs": [
        {
          "name": "_tokenId",
          "type": "uint256"
        }
      ],
      "name": "getRoomInfo",
      "outputs": [
        {
          "name": "owner",
          "type": "address"
        },
        {
          "name": "renter",
          "type": "address"
        },
        {
          "name": "minRentTime",
          "type": "uint256"
        },
        {
          "name": "numBeds",
          "type": "uint16"
        }
      ],
      "payable": false,
      "stateMutability": "view",
      "type": "function"
    },
    {
      "constant": false,
      "inputs": [
        {
          "name": "_numBeds",
          "type": "uint16"
        }
      ],
      "name": "addRoom",
      "outputs": [
        {
          "name": "",
          "type": "uint256"
        }
      ],
      "payable": false,
      "stateMutability": "nonpayable",
      "type": "function"
    },
    {
      "constant": true,
      "inputs": [
        {
          "name": "",
          "type": "uint256"
        }
      ],
      "name": "transferApproval_byIndex",
      "outputs": [
        {
          "name": "",
          "type": "address"
        }
      ],
      "payable": false,
      "stateMutability": "view",
      "type": "function"
    },
    {
      "constant": false,
      "inputs": [],
      "name": "pause",
      "outputs": [],
      "payable": false,
      "stateMutability": "nonpayable",
      "type": "function"
    },
    {
      "constant": true,
      "inputs": [],
      "name": "ceo",
      "outputs": [
        {
          "name": "",
          "type": "address"
        }
      ],
      "payable": false,
      "stateMutability": "view",
      "type": "function"
    },
    {
      "constant": true,
      "inputs": [],
      "name": "MIN_RENT_TIME",
      "outputs": [
        {
          "name": "",
          "type": "uint256"
        }
      ],
      "payable": false,
      "stateMutability": "view",
      "type": "function"
    },
    {
      "constant": true,
      "inputs": [
        {
          "name": "",
          "type": "uint256"
        }
      ],
      "name": "roomOwners_byIndex",
      "outputs": [
        {
          "name": "",
          "type": "address"
        }
      ],
      "payable": false,
      "stateMutability": "view",
      "type": "function"
    },
    {
      "constant": true,
      "inputs": [
        {
          "name": "_tokenId",
          "type": "uint256"
        }
      ],
      "name": "getNumBeds",
      "outputs": [
        {
          "name": "numBeds",
          "type": "uint16"
        }
      ],
      "payable": false,
      "stateMutability": "view",
      "type": "function"
    },
    {
      "constant": true,
      "inputs": [
        {
          "name": "",
          "type": "address"
        }
      ],
      "name": "numRooms_byOwner",
      "outputs": [
        {
          "name": "",
          "type": "uint256"
        }
      ],
      "payable": false,
      "stateMutability": "view",
      "type": "function"
    },
    {
      "constant": true,
      "inputs": [],
      "name": "getCLevel",
      "outputs": [
        {
          "name": "_ceo",
          "type": "address"
        },
        {
          "name": "_cfo",
          "type": "address"
        },
        {
          "name": "_coo",
          "type": "address"
        }
      ],
      "payable": false,
      "stateMutability": "view",
      "type": "function"
    },
    {
      "constant": false,
      "inputs": [],
      "name": "unPause",
      "outputs": [],
      "payable": false,
      "stateMutability": "nonpayable",
      "type": "function"
    }
  ],
  "bytecode": "0x60606040526000600260146101000a81548160ff02191690831515021790555062015180600455336000806101000a81548173ffffffffffffffffffffffffffffffffffffffff021916908373ffffffffffffffffffffffffffffffffffffffff160217905550611645806100756000396000f300606060405260043610610128576000357c0100000000000000000000000000000000000000000000000000000000900463ffffffff1680630335e0fc1461012d57806307cdee491461015d5780631bae0ac8146101b25780631ed203471461025e57806327d7874c146102b35780632ba73c15146102ec5780632ea665781461032557806330662b7b146103515780634e0a3379146103bd578063595bb90f146103f65780635c975abb1461042d5780636790d2b51461045a5780637ba6828a146105065780637d89b7c5146105415780638456cb59146105a4578063908921fc146105b9578063a6dfed691461060e578063b858da3514610637578063bdf1e3661461069a578063ca184a25146106d9578063eca5d2d814610726578063f7b188a5146107e1575b600080fd5b341561013857600080fd5b61015b600480803590602001909190803561ffff169060200190919050506107f6565b005b341561016857600080fd5b610170610899565b604051808273ffffffffffffffffffffffffffffffffffffffff1673ffffffffffffffffffffffffffffffffffffffff16815260200191505060405180910390f35b34156101bd57600080fd5b6101d360048080359060200190919050506108bf565b604051808573ffffffffffffffffffffffffffffffffffffffff1673ffffffffffffffffffffffffffffffffffffffff1681526020018473ffffffffffffffffffffffffffffffffffffffff1673ffffffffffffffffffffffffffffffffffffffff1681526020018381526020018261ffff1661ffff16815260200194505050505060405180910390f35b341561026957600080fd5b61027161094c565b604051808273ffffffffffffffffffffffffffffffffffffffff1673ffffffffffffffffffffffffffffffffffffffff16815260200191505060405180910390f35b34156102be57600080fd5b6102ea600480803573ffffffffffffffffffffffffffffffffffffffff16906020019091905050610972565b005b34156102f757600080fd5b610323600480803573ffffffffffffffffffffffffffffffffffffffff16906020019091905050610a4c565b005b341561033057600080fd5b61034f6004808035906020019091908035906020019091905050610b27565b005b341561035c57600080fd5b61037b6004808035906020019091908035906020019091905050610bb4565b604051808273ffffffffffffffffffffffffffffffffffffffff1673ffffffffffffffffffffffffffffffffffffffff16815260200191505060405180910390f35b34156103c857600080fd5b6103f4600480803573ffffffffffffffffffffffffffffffffffffffff16906020019091905050610bf6565b005b341561040157600080fd5b6104176004808035906020019091905050610cd1565b6040518082815260200191505060405180910390f35b341561043857600080fd5b610440610d11565b604051808215151515815260200191505060405180910390f35b341561046557600080fd5b61047b6004808035906020019091905050610d24565b604051808573ffffffffffffffffffffffffffffffffffffffff1673ffffffffffffffffffffffffffffffffffffffff1681526020018473ffffffffffffffffffffffffffffffffffffffff1673ffffffffffffffffffffffffffffffffffffffff1681526020018381526020018261ffff1661ffff16815260200194505050505060405180910390f35b341561051157600080fd5b61052b600480803561ffff16906020019091905050610dbd565b6040518082815260200191505060405180910390f35b341561054c57600080fd5b610562600480803590602001909190505061103d565b604051808273ffffffffffffffffffffffffffffffffffffffff1673ffffffffffffffffffffffffffffffffffffffff16815260200191505060405180910390f35b34156105af57600080fd5b6105b7611070565b005b34156105c457600080fd5b6105cc6111b4565b604051808273ffffffffffffffffffffffffffffffffffffffff1673ffffffffffffffffffffffffffffffffffffffff16815260200191505060405180910390f35b341561061957600080fd5b6106216111d9565b6040518082815260200191505060405180910390f35b341561064257600080fd5b61065860048080359060200190919050506111df565b604051808273ffffffffffffffffffffffffffffffffffffffff1673ffffffffffffffffffffffffffffffffffffffff16815260200191505060405180910390f35b34156106a557600080fd5b6106bb6004808035906020019091905050611212565b604051808261ffff1661ffff16815260200191505060405180910390f35b34156106e457600080fd5b610710600480803573ffffffffffffffffffffffffffffffffffffffff1690602001909190505061124f565b6040518082815260200191505060405180910390f35b341561073157600080fd5b610739611267565b604051808473ffffffffffffffffffffffffffffffffffffffff1673ffffffffffffffffffffffffffffffffffffffff1681526020018373ffffffffffffffffffffffffffffffffffffffff1673ffffffffffffffffffffffffffffffffffffffff1681526020018273ffffffffffffffffffffffffffffffffffffffff1673ffffffffffffffffffffffffffffffffffffffff168152602001935050505060405180910390f35b34156107ec57600080fd5b6107f46112df565b005b600060038381548110151561080757fe5b906000526020600020906004020190508060000160009054906101000a900473ffffffffffffffffffffffffffffffffffffffff1673ffffffffffffffffffffffffffffffffffffffff163373ffffffffffffffffffffffffffffffffffffffff1614151561087557600080fd5b818160030160006101000a81548161ffff021916908361ffff160217905550505050565b600260009054906101000a900473ffffffffffffffffffffffffffffffffffffffff1681565b6003818154811015156108ce57fe5b90600052602060002090600402016000915090508060000160009054906101000a900473ffffffffffffffffffffffffffffffffffffffff16908060010160009054906101000a900473ffffffffffffffffffffffffffffffffffffffff16908060020154908060030160009054906101000a900461ffff16905084565b600160009054906101000a900473ffffffffffffffffffffffffffffffffffffffff1681565b6000809054906101000a900473ffffffffffffffffffffffffffffffffffffffff1673ffffffffffffffffffffffffffffffffffffffff163373ffffffffffffffffffffffffffffffffffffffff161415156109cd57600080fd5b600073ffffffffffffffffffffffffffffffffffffffff168173ffffffffffffffffffffffffffffffffffffffff1614151515610a0957600080fd5b806000806101000a81548173ffffffffffffffffffffffffffffffffffffffff021916908373ffffffffffffffffffffffffffffffffffffffff16021790555050565b6000809054906101000a900473ffffffffffffffffffffffffffffffffffffffff1673ffffffffffffffffffffffffffffffffffffffff163373ffffffffffffffffffffffffffffffffffffffff16141515610aa757600080fd5b600073ffffffffffffffffffffffffffffffffffffffff168173ffffffffffffffffffffffffffffffffffffffff1614151515610ae357600080fd5b80600260006101000a81548173ffffffffffffffffffffffffffffffffffffffff021916908373ffffffffffffffffffffffffffffffffffffffff16021790555050565b6000600383815481101515610b3857fe5b906000526020600020906004020190508060000160009054906101000a900473ffffffffffffffffffffffffffffffffffffffff1673ffffffffffffffffffffffffffffffffffffffff163373ffffffffffffffffffffffffffffffffffffffff16141515610ba657600080fd5b818160020181905550505050565b60086020528160005260406000206020528060005260406000206000915091509054906101000a900473ffffffffffffffffffffffffffffffffffffffff1681565b6000809054906101000a900473ffffffffffffffffffffffffffffffffffffffff1673ffffffffffffffffffffffffffffffffffffffff163373ffffffffffffffffffffffffffffffffffffffff16141515610c5157600080fd5b600073ffffffffffffffffffffffffffffffffffffffff168173ffffffffffffffffffffffffffffffffffffffff1614151515610c8d57600080fd5b80600160006101000a81548173ffffffffffffffffffffffffffffffffffffffff021916908373ffffffffffffffffffffffffffffffffffffffff16021790555050565b6000806000600384815481101515610ce557fe5b90600052602060002090600402019150816002015490508042811515610d0757fe5b0492505050919050565b600260149054906101000a900460ff1681565b6000806000806000600386815481101515610d3b57fe5b906000526020600020906004020190508060000160009054906101000a900473ffffffffffffffffffffffffffffffffffffffff1694508060010160009054906101000a900473ffffffffffffffffffffffffffffffffffffffff169350806002015492508060030160009054906101000a900461ffff169150509193509193565b600080600080610dcb611504565b60008060009054906101000a900473ffffffffffffffffffffffffffffffffffffffff1673ffffffffffffffffffffffffffffffffffffffff163373ffffffffffffffffffffffffffffffffffffffff161480610e755750600160009054906101000a900473ffffffffffffffffffffffffffffffffffffffff1673ffffffffffffffffffffffffffffffffffffffff163373ffffffffffffffffffffffffffffffffffffffff16145b80610ecd5750600260009054906101000a900473ffffffffffffffffffffffffffffffffffffffff1673ffffffffffffffffffffffffffffffffffffffff163373ffffffffffffffffffffffffffffffffffffffff16145b1515610ed857600080fd5b3394506000935060045492506080604051908101604052808673ffffffffffffffffffffffffffffffffffffffff1681526020018573ffffffffffffffffffffffffffffffffffffffff1681526020018481526020018861ffff168152509150600160038054806001018281610f4e919061155d565b9160005260206000209060040201600085909190915060008201518160000160006101000a81548173ffffffffffffffffffffffffffffffffffffffff021916908373ffffffffffffffffffffffffffffffffffffffff16021790555060208201518160010160006101000a81548173ffffffffffffffffffffffffffffffffffffffff021916908373ffffffffffffffffffffffffffffffffffffffff1602179055506040820151816002015560608201518160030160006101000a81548161ffff021916908361ffff160217905550505003905061103060008683611372565b8095505050505050919050565b60076020528060005260406000206000915054906101000a900473ffffffffffffffffffffffffffffffffffffffff1681565b6000809054906101000a900473ffffffffffffffffffffffffffffffffffffffff1673ffffffffffffffffffffffffffffffffffffffff163373ffffffffffffffffffffffffffffffffffffffff1614806111185750600160009054906101000a900473ffffffffffffffffffffffffffffffffffffffff1673ffffffffffffffffffffffffffffffffffffffff163373ffffffffffffffffffffffffffffffffffffffff16145b806111705750600260009054906101000a900473ffffffffffffffffffffffffffffffffffffffff1673ffffffffffffffffffffffffffffffffffffffff163373ffffffffffffffffffffffffffffffffffffffff16145b151561117b57600080fd5b600260149054906101000a900460ff1615151561119757600080fd5b6001600260146101000a81548160ff021916908315150217905550565b6000809054906101000a900473ffffffffffffffffffffffffffffffffffffffff1681565b60045481565b60056020528060005260406000206000915054906101000a900473ffffffffffffffffffffffffffffffffffffffff1681565b60008060038381548110151561122457fe5b906000526020600020906004020190508060030160009054906101000a900461ffff16915050919050565b60066020528060005260406000206000915090505481565b60008060008060009054906101000a900473ffffffffffffffffffffffffffffffffffffffff169250600160009054906101000a900473ffffffffffffffffffffffffffffffffffffffff169150600260009054906101000a900473ffffffffffffffffffffffffffffffffffffffff169050909192565b6000809054906101000a900473ffffffffffffffffffffffffffffffffffffffff1673ffffffffffffffffffffffffffffffffffffffff163373ffffffffffffffffffffffffffffffffffffffff1614151561133a57600080fd5b600260149054906101000a900460ff16151561135557600080fd5b6000600260146101000a81548160ff021916908315150217905550565b6000600660008473ffffffffffffffffffffffffffffffffffffffff1673ffffffffffffffffffffffffffffffffffffffff16815260200190815260200160002060008154809291906001019190505550826005600084815260200190815260200160002060006101000a81548173ffffffffffffffffffffffffffffffffffffffff021916908373ffffffffffffffffffffffffffffffffffffffff16021790555060038281548110151561142457fe5b90600052602060002090600402019050828160000160006101000a81548173ffffffffffffffffffffffffffffffffffffffff021916908373ffffffffffffffffffffffffffffffffffffffff160217905550600073ffffffffffffffffffffffffffffffffffffffff168473ffffffffffffffffffffffffffffffffffffffff161415156114fe57600660008573ffffffffffffffffffffffffffffffffffffffff1673ffffffffffffffffffffffffffffffffffffffff16815260200190815260200160002060008154809291906001900391905055505b50505050565b608060405190810160405280600073ffffffffffffffffffffffffffffffffffffffff168152602001600073ffffffffffffffffffffffffffffffffffffffff16815260200160008152602001600061ffff1681525090565b81548183558181151161158a57600402816004028360005260206000209182019101611589919061158f565b5b505050565b61161691905b8082111561161257600080820160006101000a81549073ffffffffffffffffffffffffffffffffffffffff02191690556001820160006101000a81549073ffffffffffffffffffffffffffffffffffffffff021916905560028201600090556003820160006101000a81549061ffff021916905550600401611595565b5090565b905600a165627a7a72305820953310e9bc822f3a06fac2228d850954cddc7344428b8db33ce5bf57098be9620029",
  "source": "pragma solidity ^0.4.17;\n\nimport './PermissionedAccess.sol';\n\n// Room base defines room attributes, stores the rooms, and adds new rooms\ncontract RoomBase is PermissionedAccess {\n\n    /**\n    Define variables\n    */\n\n    // @dev main Room strucutre\n    struct Room {\n\n        // owner\n        address owner;\n\n        // renter\n        address renter;\n\n        // min rental\n        uint256 minRentTime;\n\n        // identify number of beds\n        uint16 numBeds;\n    }\n\n    // @dev init array of Room structs, called rooms\n    Room[] public rooms;\n\n    // @dev default minimum unit of rent is one day (in seconds)\n    uint256 public MIN_RENT_TIME = 3600*24;\n\n    // @dev mapping for \"tokenId\" assignment to owner\n    mapping (uint256 => address) public roomOwners_byIndex;\n\n    // @dev mapping to store total rooms owned\n    mapping (address => uint256) public numRooms_byOwner;\n\n    // @dev mapping for ERC721 approval to transfer\n    mapping (uint256 => address) public transferApproval_byIndex;\n\n    // @dev mapping for basic reservations\n    mapping (uint256 => mapping (uint256 => address)) public reservations;\n\n    /**\n    Define Functions\n    */\n    function addRoom(uint16 _numBeds) external onlyCLevel returns (uint256) {\n\n        address _owner = msg.sender;\n        address _renter = address(0);\n        uint256 _min = MIN_RENT_TIME;\n\n        // create new Room struct and store to memory\n        Room memory _room = Room({\n            owner: _owner,\n            renter: _renter,\n            minRentTime: _min,\n            numBeds: _numBeds\n        });\n\n        // push new room to rooms array\n        uint256 roomId = rooms.push(_room) - 1;\n\n        _transfer(0, _owner, roomId);\n\n        return roomId;\n    }\n\n    function getNumBeds(uint256 _tokenId) external view returns (uint16 numBeds) {\n        Room storage room = rooms[_tokenId];\n\n        numBeds = room.numBeds;\n    }\n\n    function getRoomInfo(uint256 _tokenId)\n        external\n        view\n        returns (address owner, address renter, uint256 minRentTime, uint16 numBeds)\n        {\n        Room storage room = rooms[_tokenId];\n\n        owner = room.owner;\n        renter = room.renter;\n        minRentTime = room.minRentTime;\n        numBeds = room.numBeds;\n    }\n\n    function changeMinRental(uint256 _tokenId, uint256 _newMin) external {\n        Room storage room = rooms[_tokenId];\n        require(msg.sender == room.owner);\n        room.minRentTime = _newMin;\n    }\n\n    function changeNumBeds(uint256 _tokenId, uint16 _beds) external {\n        Room storage room = rooms[_tokenId];\n        require(msg.sender == room.owner);\n        room.numBeds = _beds;\n    }\n\n    // get time\n    function getCurrentTime(uint256 _tokenId) external view returns (uint256 _time) {\n        Room storage room = rooms[_tokenId];\n        uint256 minRent = room.minRentTime;\n        _time = now/minRent;\n    }\n\n    // @dev internally transfer token to new owner\n    function _transfer(address _from, address _to, uint256 _tokenId) internal {\n\n        numRooms_byOwner[_to] ++;\n        roomOwners_byIndex[_tokenId] = _to;\n\n        Room storage r = rooms[_tokenId];\n        r.owner = _to;\n\n        if (_from != address(0)) {\n            numRooms_byOwner[_from]--;\n        }\n    }\n}\n",
  "sourcePath": "/Users/stevelee/Documents/BookLocal/proofOfConcept/contracts/RoomBase.sol",
  "compiler": {
    "name": "solc",
    "version": "0.4.18+commit.9cf6e910.Emscripten.clang"
  },
  "schemaVersion": "1.0.1",
  "updatedAt": "2018-02-10T21:24:26.379Z"
}