{
  "contractName": "RoomRenting",
  "abi": [
    {
      "constant": false,
      "inputs": [
        {
          "name": "_tokenId",
          "type": "uint256"
        },
        {
          "name": "_beds",
          "type": "uint16"
        }
      ],
      "name": "changeNumBeds",
      "outputs": [],
      "payable": false,
      "stateMutability": "nonpayable",
      "type": "function"
    },
    {
      "constant": true,
      "inputs": [],
      "name": "coo",
      "outputs": [
        {
          "name": "",
          "type": "address"
        }
      ],
      "payable": false,
      "stateMutability": "view",
      "type": "function"
    },
    {
      "constant": false,
      "inputs": [
        {
          "name": "_to",
          "type": "address"
        },
        {
          "name": "_tokenId",
          "type": "uint256"
        }
      ],
      "name": "approve",
      "outputs": [],
      "payable": false,
      "stateMutability": "nonpayable",
      "type": "function"
    },
    {
      "constant": false,
      "inputs": [
        {
          "name": "_tokenId",
          "type": "uint256"
        },
        {
          "name": "_start",
          "type": "uint256"
        },
        {
          "name": "_stop",
          "type": "uint256"
        },
        {
          "name": "_accessCode",
          "type": "bytes32"
        }
      ],
      "name": "reserve",
      "outputs": [
        {
          "name": "",
          "type": "bool"
        }
      ],
      "payable": false,
      "stateMutability": "nonpayable",
      "type": "function"
    },
    {
      "constant": true,
      "inputs": [],
      "name": "getNumberOfAccessCodes",
      "outputs": [
        {
          "name": "_codesLeft",
          "type": "uint256"
        }
      ],
      "payable": false,
      "stateMutability": "view",
      "type": "function"
    },
    {
      "constant": true,
      "inputs": [],
      "name": "totalSupply",
      "outputs": [
        {
          "name": "supply",
          "type": "uint256"
        }
      ],
      "payable": false,
      "stateMutability": "view",
      "type": "function"
    },
    {
      "constant": true,
      "inputs": [
        {
          "name": "",
          "type": "uint256"
        }
      ],
      "name": "rooms",
      "outputs": [
        {
          "name": "owner",
          "type": "address"
        },
        {
          "name": "renter",
          "type": "address"
        },
        {
          "name": "minRentTime",
          "type": "uint256"
        },
        {
          "name": "numBeds",
          "type": "uint16"
        }
      ],
      "payable": false,
      "stateMutability": "view",
      "type": "function"
    },
    {
      "constant": true,
      "inputs": [],
      "name": "cfo",
      "outputs": [
        {
          "name": "",
          "type": "address"
        }
      ],
      "payable": false,
      "stateMutability": "view",
      "type": "function"
    },
    {
      "constant": false,
      "inputs": [
        {
          "name": "_from",
          "type": "address"
        },
        {
          "name": "_to",
          "type": "address"
        },
        {
          "name": "_tokenId",
          "type": "uint256"
        }
      ],
      "name": "transferFrom",
      "outputs": [],
      "payable": false,
      "stateMutability": "nonpayable",
      "type": "function"
    },
    {
      "constant": false,
      "inputs": [
        {
          "name": "_newCEO",
          "type": "address"
        }
      ],
      "name": "setCEO",
      "outputs": [],
      "payable": false,
      "stateMutability": "nonpayable",
      "type": "function"
    },
    {
      "constant": false,
      "inputs": [
        {
          "name": "_newCOO",
          "type": "address"
        }
      ],
      "name": "setCOO",
      "outputs": [],
      "payable": false,
      "stateMutability": "nonpayable",
      "type": "function"
    },
    {
      "constant": false,
      "inputs": [
        {
          "name": "_tokenId",
          "type": "uint256"
        },
        {
          "name": "_newMin",
          "type": "uint256"
        }
      ],
      "name": "changeMinRental",
      "outputs": [],
      "payable": false,
      "stateMutability": "nonpayable",
      "type": "function"
    },
    {
      "constant": true,
      "inputs": [
        {
          "name": "",
          "type": "uint256"
        },
        {
          "name": "",
          "type": "uint256"
        }
      ],
      "name": "reservations",
      "outputs": [
        {
          "name": "",
          "type": "address"
        }
      ],
      "payable": false,
      "stateMutability": "view",
      "type": "function"
    },
    {
      "constant": false,
      "inputs": [
        {
          "name": "_newCFO",
          "type": "address"
        }
      ],
      "name": "setCFO",
      "outputs": [],
      "payable": false,
      "stateMutability": "nonpayable",
      "type": "function"
    },
    {
      "constant": true,
      "inputs": [
        {
          "name": "_tokenId",
          "type": "uint256"
        }
      ],
      "name": "ownerOf_2",
      "outputs": [
        {
          "name": "owner",
          "type": "address"
        }
      ],
      "payable": false,
      "stateMutability": "view",
      "type": "function"
    },
    {
      "constant": true,
      "inputs": [
        {
          "name": "_tokenId",
          "type": "uint256"
        }
      ],
      "name": "getCurrentTime",
      "outputs": [
        {
          "name": "_time",
          "type": "uint256"
        }
      ],
      "payable": false,
      "stateMutability": "view",
      "type": "function"
    },
    {
      "constant": false,
      "inputs": [
        {
          "name": "_tokenId",
          "type": "uint256"
        },
        {
          "name": "_start",
          "type": "uint256"
        },
        {
          "name": "_stop",
          "type": "uint256"
        }
      ],
      "name": "cancelReservation",
      "outputs": [],
      "payable": false,
      "stateMutability": "nonpayable",
      "type": "function"
    },
    {
      "constant": true,
      "inputs": [],
      "name": "paused",
      "outputs": [
        {
          "name": "",
          "type": "bool"
        }
      ],
      "payable": false,
      "stateMutability": "view",
      "type": "function"
    },
    {
      "constant": true,
      "inputs": [
        {
          "name": "_tokenId",
          "type": "uint256"
        }
      ],
      "name": "ownerOf",
      "outputs": [
        {
          "name": "",
          "type": "address"
        }
      ],
      "payable": false,
      "stateMutability": "view",
      "type": "function"
    },
    {
      "constant": true,
      "inputs": [
        {
          "name": "_tokenId",
          "type": "uint256"
        }
      ],
      "name": "getRoomInfo",
      "outputs": [
        {
          "name": "owner",
          "type": "address"
        },
        {
          "name": "renter",
          "type": "address"
        },
        {
          "name": "minRentTime",
          "type": "uint256"
        },
        {
          "name": "numBeds",
          "type": "uint16"
        }
      ],
      "payable": false,
      "stateMutability": "view",
      "type": "function"
    },
    {
      "constant": true,
      "inputs": [
        {
          "name": "_owner",
          "type": "address"
        }
      ],
      "name": "balanceOf",
      "outputs": [
        {
          "name": "count",
          "type": "uint256"
        }
      ],
      "payable": false,
      "stateMutability": "view",
      "type": "function"
    },
    {
      "constant": false,
      "inputs": [
        {
          "name": "_numBeds",
          "type": "uint16"
        }
      ],
      "name": "addRoom",
      "outputs": [
        {
          "name": "",
          "type": "uint256"
        }
      ],
      "payable": false,
      "stateMutability": "nonpayable",
      "type": "function"
    },
    {
      "constant": true,
      "inputs": [
        {
          "name": "",
          "type": "uint256"
        }
      ],
      "name": "transferApproval_byIndex",
      "outputs": [
        {
          "name": "",
          "type": "address"
        }
      ],
      "payable": false,
      "stateMutability": "view",
      "type": "function"
    },
    {
      "constant": false,
      "inputs": [
        {
          "name": "_tokenId",
          "type": "uint256"
        }
      ],
      "name": "access",
      "outputs": [],
      "payable": false,
      "stateMutability": "nonpayable",
      "type": "function"
    },
    {
      "constant": false,
      "inputs": [],
      "name": "pause",
      "outputs": [],
      "payable": false,
      "stateMutability": "nonpayable",
      "type": "function"
    },
    {
      "constant": false,
      "inputs": [
        {
          "name": "_tokenId",
          "type": "uint256"
        }
      ],
      "name": "settle",
      "outputs": [],
      "payable": false,
      "stateMutability": "nonpayable",
      "type": "function"
    },
    {
      "constant": true,
      "inputs": [],
      "name": "ceo",
      "outputs": [
        {
          "name": "",
          "type": "address"
        }
      ],
      "payable": false,
      "stateMutability": "view",
      "type": "function"
    },
    {
      "constant": false,
      "inputs": [
        {
          "name": "_accessCode",
          "type": "bytes32"
        }
      ],
      "name": "addAccessCode",
      "outputs": [],
      "payable": false,
      "stateMutability": "nonpayable",
      "type": "function"
    },
    {
      "constant": true,
      "inputs": [],
      "name": "MIN_RENT_TIME",
      "outputs": [
        {
          "name": "",
          "type": "uint256"
        }
      ],
      "payable": false,
      "stateMutability": "view",
      "type": "function"
    },
    {
      "constant": false,
      "inputs": [
        {
          "name": "_to",
          "type": "address"
        },
        {
          "name": "_tokenId",
          "type": "uint256"
        }
      ],
      "name": "transfer",
      "outputs": [],
      "payable": false,
      "stateMutability": "nonpayable",
      "type": "function"
    },
    {
      "constant": true,
      "inputs": [
        {
          "name": "",
          "type": "uint256"
        }
      ],
      "name": "roomOwners_byIndex",
      "outputs": [
        {
          "name": "",
          "type": "address"
        }
      ],
      "payable": false,
      "stateMutability": "view",
      "type": "function"
    },
    {
      "constant": true,
      "inputs": [
        {
          "name": "_tokenId",
          "type": "uint256"
        }
      ],
      "name": "getNumBeds",
      "outputs": [
        {
          "name": "numBeds",
          "type": "uint16"
        }
      ],
      "payable": false,
      "stateMutability": "view",
      "type": "function"
    },
    {
      "constant": true,
      "inputs": [
        {
          "name": "",
          "type": "address"
        }
      ],
      "name": "numRooms_byOwner",
      "outputs": [
        {
          "name": "",
          "type": "uint256"
        }
      ],
      "payable": false,
      "stateMutability": "view",
      "type": "function"
    },
    {
      "constant": true,
      "inputs": [
        {
          "name": "_tokenId",
          "type": "uint256"
        },
        {
          "name": "_date",
          "type": "uint256"
        }
      ],
      "name": "checkAvailable",
      "outputs": [
        {
          "name": "",
          "type": "bool"
        }
      ],
      "payable": false,
      "stateMutability": "view",
      "type": "function"
    },
    {
      "constant": true,
      "inputs": [],
      "name": "getCLevel",
      "outputs": [
        {
          "name": "_ceo",
          "type": "address"
        },
        {
          "name": "_cfo",
          "type": "address"
        },
        {
          "name": "_coo",
          "type": "address"
        }
      ],
      "payable": false,
      "stateMutability": "view",
      "type": "function"
    },
    {
      "constant": false,
      "inputs": [],
      "name": "unPause",
      "outputs": [],
      "payable": false,
      "stateMutability": "nonpayable",
      "type": "function"
    },
    {
      "inputs": [],
      "payable": false,
      "stateMutability": "nonpayable",
      "type": "constructor"
    }
  ],
  "bytecode": "0x60606040526000600260146101000a81548160ff02191690831515021790555062015180600455341561003157600080fd5b336000806101000a81548173ffffffffffffffffffffffffffffffffffffffff021916908373ffffffffffffffffffffffffffffffffffffffff160217905550336000806101000a81548173ffffffffffffffffffffffffffffffffffffffff021916908373ffffffffffffffffffffffffffffffffffffffff160217905550612820806100c06000396000f3006060604052600436106101c2576000357c0100000000000000000000000000000000000000000000000000000000900463ffffffff1680630335e0fc146101c757806307cdee49146101f7578063095ea7b31461024c5780630b8b80651461028e5780630fe598dd146102e857806318160ddd146103115780631bae0ac81461033a5780631ed20347146103e657806323b872dd1461043b57806327d7874c1461049c5780632ba73c15146104d55780632ea665781461050e57806330662b7b1461053a5780634e0a3379146105a65780634f369e73146105df578063595bb90f146106425780635a944a8e146106795780635c975abb146106ae5780636352211e146106db5780636790d2b51461073e57806370a08231146107ea5780637ba6828a146108375780637d89b7c514610872578063803ad4de146108d55780638456cb59146108f85780638df828001461090d578063908921fc14610930578063972fc74c14610985578063a6dfed69146109ac578063a9059cbb146109d5578063b858da3514610a17578063bdf1e36614610a7a578063ca184a2514610ab9578063d8db19de14610b06578063eca5d2d814610b4a578063f7b188a514610c05575b600080fd5b34156101d257600080fd5b6101f5600480803590602001909190803561ffff16906020019091905050610c1a565b005b341561020257600080fd5b61020a610cbd565b604051808273ffffffffffffffffffffffffffffffffffffffff1673ffffffffffffffffffffffffffffffffffffffff16815260200191505060405180910390f35b341561025757600080fd5b61028c600480803573ffffffffffffffffffffffffffffffffffffffff16906020019091908035906020019091905050610ce3565b005b341561029957600080fd5b6102ce600480803590602001909190803590602001909190803590602001909190803560001916906020019091905050610d06565b604051808215151515815260200191505060405180910390f35b34156102f357600080fd5b6102fb610dfb565b6040518082815260200191505060405180910390f35b341561031c57600080fd5b610324610e08565b6040518082815260200191505060405180910390f35b341561034557600080fd5b61035b6004808035906020019091905050610e15565b604051808573ffffffffffffffffffffffffffffffffffffffff1673ffffffffffffffffffffffffffffffffffffffff1681526020018473ffffffffffffffffffffffffffffffffffffffff1673ffffffffffffffffffffffffffffffffffffffff1681526020018381526020018261ffff1661ffff16815260200194505050505060405180910390f35b34156103f157600080fd5b6103f9610ea2565b604051808273ffffffffffffffffffffffffffffffffffffffff1673ffffffffffffffffffffffffffffffffffffffff16815260200191505060405180910390f35b341561044657600080fd5b61049a600480803573ffffffffffffffffffffffffffffffffffffffff1690602001909190803573ffffffffffffffffffffffffffffffffffffffff16906020019091908035906020019091905050610ec8565b005b34156104a757600080fd5b6104d3600480803573ffffffffffffffffffffffffffffffffffffffff16906020019091905050610f79565b005b34156104e057600080fd5b61050c600480803573ffffffffffffffffffffffffffffffffffffffff16906020019091905050611053565b005b341561051957600080fd5b610538600480803590602001909190803590602001909190505061112e565b005b341561054557600080fd5b61056460048080359060200190919080359060200190919050506111bb565b604051808273ffffffffffffffffffffffffffffffffffffffff1673ffffffffffffffffffffffffffffffffffffffff16815260200191505060405180910390f35b34156105b157600080fd5b6105dd600480803573ffffffffffffffffffffffffffffffffffffffff169060200190919050506111fd565b005b34156105ea57600080fd5b61060060048080359060200190919050506112d8565b604051808273ffffffffffffffffffffffffffffffffffffffff1673ffffffffffffffffffffffffffffffffffffffff16815260200191505060405180910390f35b341561064d57600080fd5b6106636004808035906020019091905050611327565b6040518082815260200191505060405180910390f35b341561068457600080fd5b6106ac6004808035906020019091908035906020019091908035906020019091905050611367565b005b34156106b957600080fd5b6106c16114b8565b604051808215151515815260200191505060405180910390f35b34156106e657600080fd5b6106fc60048080359060200190919050506114cb565b604051808273ffffffffffffffffffffffffffffffffffffffff1673ffffffffffffffffffffffffffffffffffffffff16815260200191505060405180910390f35b341561074957600080fd5b61075f6004808035906020019091905050611549565b604051808573ffffffffffffffffffffffffffffffffffffffff1673ffffffffffffffffffffffffffffffffffffffff1681526020018473ffffffffffffffffffffffffffffffffffffffff1673ffffffffffffffffffffffffffffffffffffffff1681526020018381526020018261ffff1661ffff16815260200194505050505060405180910390f35b34156107f557600080fd5b610821600480803573ffffffffffffffffffffffffffffffffffffffff169060200190919050506115e2565b6040518082815260200191505060405180910390f35b341561084257600080fd5b61085c600480803561ffff1690602001909190505061162e565b6040518082815260200191505060405180910390f35b341561087d57600080fd5b61089360048080359060200190919050506118ae565b604051808273ffffffffffffffffffffffffffffffffffffffff1673ffffffffffffffffffffffffffffffffffffffff16815260200191505060405180910390f35b34156108e057600080fd5b6108f660048080359060200190919050506118e1565b005b341561090357600080fd5b61090b611a8e565b005b341561091857600080fd5b61092e6004808035906020019091905050611bd2565b005b341561093b57600080fd5b610943611d02565b604051808273ffffffffffffffffffffffffffffffffffffffff1673ffffffffffffffffffffffffffffffffffffffff16815260200191505060405180910390f35b341561099057600080fd5b6109aa600480803560001916906020019091905050611d27565b005b34156109b757600080fd5b6109bf611e64565b6040518082815260200191505060405180910390f35b34156109e057600080fd5b610a15600480803573ffffffffffffffffffffffffffffffffffffffff16906020019091908035906020019091905050611e6a565b005b3415610a2257600080fd5b610a386004808035906020019091905050611f05565b604051808273ffffffffffffffffffffffffffffffffffffffff1673ffffffffffffffffffffffffffffffffffffffff16815260200191505060405180910390f35b3415610a8557600080fd5b610a9b6004808035906020019091905050611f38565b604051808261ffff1661ffff16815260200191505060405180910390f35b3415610ac457600080fd5b610af0600480803573ffffffffffffffffffffffffffffffffffffffff16906020019091905050611f75565b6040518082815260200191505060405180910390f35b3415610b1157600080fd5b610b306004808035906020019091908035906020019091905050611f8d565b604051808215151515815260200191505060405180910390f35b3415610b5557600080fd5b610b5d61200a565b604051808473ffffffffffffffffffffffffffffffffffffffff1673ffffffffffffffffffffffffffffffffffffffff1681526020018373ffffffffffffffffffffffffffffffffffffffff1673ffffffffffffffffffffffffffffffffffffffff1681526020018273ffffffffffffffffffffffffffffffffffffffff1673ffffffffffffffffffffffffffffffffffffffff168152602001935050505060405180910390f35b3415610c1057600080fd5b610c18612082565b005b6000600383815481101515610c2b57fe5b906000526020600020906004020190508060000160009054906101000a900473ffffffffffffffffffffffffffffffffffffffff1673ffffffffffffffffffffffffffffffffffffffff163373ffffffffffffffffffffffffffffffffffffffff16141515610c9957600080fd5b818160030160006101000a81548161ffff021916908361ffff160217905550505050565b600260009054906101000a900473ffffffffffffffffffffffffffffffffffffffff1681565b610ced3382612115565b1515610cf857600080fd5b610d028183612181565b5050565b600080600083610d15816121d7565b1515610d2057600080fd5b3392508587101515610d3157600080fd5b8691505b8582111515610d6457610d488883612237565b1515610d575760009350610df0565b8180600101925050610d35565b8691505b8582111515610de15782600860008a8152602001908152602001600020600084815260200190815260200160002060006101000a81548173ffffffffffffffffffffffffffffffffffffffff021916908373ffffffffffffffffffffffffffffffffffffffff1602179055508180600101925050610d68565b610dea856122b4565b50600193505b505050949350505050565b6000600980549050905090565b6000600380549050905090565b600381815481101515610e2457fe5b90600052602060002090600402016000915090508060000160009054906101000a900473ffffffffffffffffffffffffffffffffffffffff16908060010160009054906101000a900473ffffffffffffffffffffffffffffffffffffffff16908060020154908060030160009054906101000a900461ffff16905084565b600160009054906101000a900473ffffffffffffffffffffffffffffffffffffffff1681565b600073ffffffffffffffffffffffffffffffffffffffff168273ffffffffffffffffffffffffffffffffffffffff1614151515610f0457600080fd5b3073ffffffffffffffffffffffffffffffffffffffff168273ffffffffffffffffffffffffffffffffffffffff1614151515610f3f57600080fd5b610f493382612336565b1515610f5457600080fd5b610f5e8382612115565b1515610f6957600080fd5b610f748383836123a2565b505050565b6000809054906101000a900473ffffffffffffffffffffffffffffffffffffffff1673ffffffffffffffffffffffffffffffffffffffff163373ffffffffffffffffffffffffffffffffffffffff16141515610fd457600080fd5b600073ffffffffffffffffffffffffffffffffffffffff168173ffffffffffffffffffffffffffffffffffffffff161415151561101057600080fd5b806000806101000a81548173ffffffffffffffffffffffffffffffffffffffff021916908373ffffffffffffffffffffffffffffffffffffffff16021790555050565b6000809054906101000a900473ffffffffffffffffffffffffffffffffffffffff1673ffffffffffffffffffffffffffffffffffffffff163373ffffffffffffffffffffffffffffffffffffffff161415156110ae57600080fd5b600073ffffffffffffffffffffffffffffffffffffffff168173ffffffffffffffffffffffffffffffffffffffff16141515156110ea57600080fd5b80600260006101000a81548173ffffffffffffffffffffffffffffffffffffffff021916908373ffffffffffffffffffffffffffffffffffffffff16021790555050565b600060038381548110151561113f57fe5b906000526020600020906004020190508060000160009054906101000a900473ffffffffffffffffffffffffffffffffffffffff1673ffffffffffffffffffffffffffffffffffffffff163373ffffffffffffffffffffffffffffffffffffffff161415156111ad57600080fd5b818160020181905550505050565b60086020528160005260406000206020528060005260406000206000915091509054906101000a900473ffffffffffffffffffffffffffffffffffffffff1681565b6000809054906101000a900473ffffffffffffffffffffffffffffffffffffffff1673ffffffffffffffffffffffffffffffffffffffff163373ffffffffffffffffffffffffffffffffffffffff1614151561125857600080fd5b600073ffffffffffffffffffffffffffffffffffffffff168173ffffffffffffffffffffffffffffffffffffffff161415151561129457600080fd5b80600160006101000a81548173ffffffffffffffffffffffffffffffffffffffff021916908373ffffffffffffffffffffffffffffffffffffffff16021790555050565b6000806003838154811015156112ea57fe5b906000526020600020906004020190508060000160009054906101000a900473ffffffffffffffffffffffffffffffffffffffff16915050919050565b600080600060038481548110151561133b57fe5b9060005260206000209060040201915081600201549050804281151561135d57fe5b0492505050919050565b600061137283612534565b151561137d57600080fd5b818310151561138b57600080fd5b6005600085815260200190815260200160002060009054906101000a900473ffffffffffffffffffffffffffffffffffffffff1673ffffffffffffffffffffffffffffffffffffffff163373ffffffffffffffffffffffffffffffffffffffff16141515611451578290505b81811115156114505761140a8482612552565b73ffffffffffffffffffffffffffffffffffffffff163373ffffffffffffffffffffffffffffffffffffffff1614151561144357600080fd5b80806001019150506113f7565b5b8290505b81811115156114b25760086000858152602001908152602001600020600082815260200190815260200160002060006101000a81549073ffffffffffffffffffffffffffffffffffffffff02191690558080600101915050611455565b50505050565b600260149054906101000a900460ff1681565b6000806005600084815260200190815260200160002060009054906101000a900473ffffffffffffffffffffffffffffffffffffffff169050600073ffffffffffffffffffffffffffffffffffffffff168173ffffffffffffffffffffffffffffffffffffffff161415151561154057600080fd5b80915050919050565b600080600080600060038681548110151561156057fe5b906000526020600020906004020190508060000160009054906101000a900473ffffffffffffffffffffffffffffffffffffffff1694508060010160009054906101000a900473ffffffffffffffffffffffffffffffffffffffff169350806002015492508060030160009054906101000a900461ffff169150509193509193565b6000600660008373ffffffffffffffffffffffffffffffffffffffff1673ffffffffffffffffffffffffffffffffffffffff168152602001908152602001600020549050809050919050565b60008060008061163c612662565b60008060009054906101000a900473ffffffffffffffffffffffffffffffffffffffff1673ffffffffffffffffffffffffffffffffffffffff163373ffffffffffffffffffffffffffffffffffffffff1614806116e65750600160009054906101000a900473ffffffffffffffffffffffffffffffffffffffff1673ffffffffffffffffffffffffffffffffffffffff163373ffffffffffffffffffffffffffffffffffffffff16145b8061173e5750600260009054906101000a900473ffffffffffffffffffffffffffffffffffffffff1673ffffffffffffffffffffffffffffffffffffffff163373ffffffffffffffffffffffffffffffffffffffff16145b151561174957600080fd5b3394506000935060045492506080604051908101604052808673ffffffffffffffffffffffffffffffffffffffff1681526020018573ffffffffffffffffffffffffffffffffffffffff1681526020018481526020018861ffff1681525091506001600380548060010182816117bf91906126bb565b9160005260206000209060040201600085909190915060008201518160000160006101000a81548173ffffffffffffffffffffffffffffffffffffffff021916908373ffffffffffffffffffffffffffffffffffffffff16021790555060208201518160010160006101000a81548173ffffffffffffffffffffffffffffffffffffffff021916908373ffffffffffffffffffffffffffffffffffffffff1602179055506040820151816002015560608201518160030160006101000a81548161ffff021916908361ffff16021790555050500390506118a1600086836123a2565b8095505050505050919050565b60076020528060005260406000206000915054906101000a900473ffffffffffffffffffffffffffffffffffffffff1681565b60008060006003848154811015156118f557fe5b9060005260206000209060040201925082600201549150814281151561191757fe5b04905060086000858152602001908152602001600020600082815260200190815260200160002060009054906101000a900473ffffffffffffffffffffffffffffffffffffffff1673ffffffffffffffffffffffffffffffffffffffff163373ffffffffffffffffffffffffffffffffffffffff1614806119f657506005600085815260200190815260200160002060009054906101000a900473ffffffffffffffffffffffffffffffffffffffff1673ffffffffffffffffffffffffffffffffffffffff163373ffffffffffffffffffffffffffffffffffffffff16145b1515611a0157600080fd5b60086000858152602001908152602001600020600082815260200190815260200160002060009054906101000a900473ffffffffffffffffffffffffffffffffffffffff168360010160006101000a81548173ffffffffffffffffffffffffffffffffffffffff021916908373ffffffffffffffffffffffffffffffffffffffff16021790555050505050565b6000809054906101000a900473ffffffffffffffffffffffffffffffffffffffff1673ffffffffffffffffffffffffffffffffffffffff163373ffffffffffffffffffffffffffffffffffffffff161480611b365750600160009054906101000a900473ffffffffffffffffffffffffffffffffffffffff1673ffffffffffffffffffffffffffffffffffffffff163373ffffffffffffffffffffffffffffffffffffffff16145b80611b8e5750600260009054906101000a900473ffffffffffffffffffffffffffffffffffffffff1673ffffffffffffffffffffffffffffffffffffffff163373ffffffffffffffffffffffffffffffffffffffff16145b1515611b9957600080fd5b600260149054906101000a900460ff16151515611bb557600080fd5b6001600260146101000a81548160ff021916908315150217905550565b600080600383815481101515611be457fe5b906000526020600020906004020191508160010160009054906101000a900473ffffffffffffffffffffffffffffffffffffffff1690506005600084815260200190815260200160002060009054906101000a900473ffffffffffffffffffffffffffffffffffffffff1673ffffffffffffffffffffffffffffffffffffffff163373ffffffffffffffffffffffffffffffffffffffff161480611cb357508073ffffffffffffffffffffffffffffffffffffffff163373ffffffffffffffffffffffffffffffffffffffff16145b15611cfd5760008260010160006101000a81548173ffffffffffffffffffffffffffffffffffffffff021916908373ffffffffffffffffffffffffffffffffffffffff1602179055505b505050565b6000809054906101000a900473ffffffffffffffffffffffffffffffffffffffff1681565b6000809054906101000a900473ffffffffffffffffffffffffffffffffffffffff1673ffffffffffffffffffffffffffffffffffffffff163373ffffffffffffffffffffffffffffffffffffffff161480611dcf5750600160009054906101000a900473ffffffffffffffffffffffffffffffffffffffff1673ffffffffffffffffffffffffffffffffffffffff163373ffffffffffffffffffffffffffffffffffffffff16145b80611e275750600260009054906101000a900473ffffffffffffffffffffffffffffffffffffffff1673ffffffffffffffffffffffffffffffffffffffff163373ffffffffffffffffffffffffffffffffffffffff16145b1515611e3257600080fd5b60098054806001018281611e4691906126ed565b91600052602060002090016000839091909150906000191690555050565b60045481565b600073ffffffffffffffffffffffffffffffffffffffff168273ffffffffffffffffffffffffffffffffffffffff1614151515611ea657600080fd5b3073ffffffffffffffffffffffffffffffffffffffff168273ffffffffffffffffffffffffffffffffffffffff1614151515611ee157600080fd5b611eeb3382612115565b1515611ef657600080fd5b611f013383836123a2565b5050565b60056020528060005260406000206000915054906101000a900473ffffffffffffffffffffffffffffffffffffffff1681565b600080600383815481101515611f4a57fe5b906000526020600020906004020190508060030160009054906101000a900461ffff16915050919050565b60066020528060005260406000206000915090505481565b60008073ffffffffffffffffffffffffffffffffffffffff1660086000858152602001908152602001600020600084815260200190815260200160002060009054906101000a900473ffffffffffffffffffffffffffffffffffffffff1673ffffffffffffffffffffffffffffffffffffffff1614905092915050565b60008060008060009054906101000a900473ffffffffffffffffffffffffffffffffffffffff169250600160009054906101000a900473ffffffffffffffffffffffffffffffffffffffff169150600260009054906101000a900473ffffffffffffffffffffffffffffffffffffffff169050909192565b6000809054906101000a900473ffffffffffffffffffffffffffffffffffffffff1673ffffffffffffffffffffffffffffffffffffffff163373ffffffffffffffffffffffffffffffffffffffff161415156120dd57600080fd5b600260149054906101000a900460ff1615156120f857600080fd5b6000600260146101000a81548160ff021916908315150217905550565b60008273ffffffffffffffffffffffffffffffffffffffff166005600084815260200190815260200160002060009054906101000a900473ffffffffffffffffffffffffffffffffffffffff1673ffffffffffffffffffffffffffffffffffffffff1614905092915050565b806007600084815260200190815260200160002060006101000a81548173ffffffffffffffffffffffffffffffffffffffff021916908373ffffffffffffffffffffffffffffffffffffffff1602179055505050565b600080600090505b60098054905081101561222c576009818154811015156121fb57fe5b906000526020600020900154600019168360001916141561221f5760019150612231565b80806001019150506121df565b600091505b50919050565b60008073ffffffffffffffffffffffffffffffffffffffff1660086000858152602001908152602001600020600084815260200190815260200160002060009054906101000a900473ffffffffffffffffffffffffffffffffffffffff1673ffffffffffffffffffffffffffffffffffffffff1614905092915050565b60008060008060009150600090505b60098054905081101561230f576009818154811015156122df57fe5b906000526020600020900154600019168560001916141561230257809250600191505b80806001019150506122c3565b81156123245761231e836125a1565b5061232d565b6000935061232e565b5b505050919050565b60008273ffffffffffffffffffffffffffffffffffffffff166007600084815260200190815260200160002060009054906101000a900473ffffffffffffffffffffffffffffffffffffffff1673ffffffffffffffffffffffffffffffffffffffff1614905092915050565b6000600660008473ffffffffffffffffffffffffffffffffffffffff1673ffffffffffffffffffffffffffffffffffffffff16815260200190815260200160002060008154809291906001019190505550826005600084815260200190815260200160002060006101000a81548173ffffffffffffffffffffffffffffffffffffffff021916908373ffffffffffffffffffffffffffffffffffffffff16021790555060038281548110151561245457fe5b90600052602060002090600402019050828160000160006101000a81548173ffffffffffffffffffffffffffffffffffffffff021916908373ffffffffffffffffffffffffffffffffffffffff160217905550600073ffffffffffffffffffffffffffffffffffffffff168473ffffffffffffffffffffffffffffffffffffffff1614151561252e57600660008573ffffffffffffffffffffffffffffffffffffffff1673ffffffffffffffffffffffffffffffffffffffff16815260200190815260200160002060008154809291906001900391905055505b50505050565b6000806004544281151561254457fe5b049050808311915050919050565b600060086000848152602001908152602001600020600083815260200190815260200160002060009054906101000a900473ffffffffffffffffffffffffffffffffffffffff16905092915050565b60008060016009805490500383111515156125bb57600080fd5b8290505b60016009805490500381101561261c576009600182018154811015156125e157fe5b9060005260206000209001546009828154811015156125fc57fe5b9060005260206000209001816000191690555080806001019150506125bf565b600960016009805490500381548110151561263357fe5b90600052602060002090016000905560098054809190600190036126579190612719565b506001915050919050565b608060405190810160405280600073ffffffffffffffffffffffffffffffffffffffff168152602001600073ffffffffffffffffffffffffffffffffffffffff16815260200160008152602001600061ffff1681525090565b8154818355818115116126e8576004028160040283600052602060002091820191016126e79190612745565b5b505050565b8154818355818115116127145781836000526020600020918201910161271391906127cf565b5b505050565b8154818355818115116127405781836000526020600020918201910161273f91906127cf565b5b505050565b6127cc91905b808211156127c857600080820160006101000a81549073ffffffffffffffffffffffffffffffffffffffff02191690556001820160006101000a81549073ffffffffffffffffffffffffffffffffffffffff021916905560028201600090556003820160006101000a81549061ffff02191690555060040161274b565b5090565b90565b6127f191905b808211156127ed5760008160009055506001016127d5565b5090565b905600a165627a7a723058200651d669d1a8122aa1adefe07dbc2b796ca171e2bb348c5b0645c2458c45be860029",
  "source": "pragma solidity ^0.4.17;\n\nimport './RoomOwnership.sol';\n\n\n// @title ERC809 draft\n// @author stevenLee <steven@booklocal.in>\n// @date 1.6.17\n\n// Overview of contents\n\n    /** CONTRACTS ***\n\n    PermissionedAccess....................sets company/hotel permissions\n    RoomBase..............................defines attributes and methods for a room\n    RoomOwnership.........................ERC-721 interface for ownership\n    RoomRenting...........................ERC-809 interface for renting\n    */\n\n    /** VARIABLES ***\n\n    MIN_RENT_TIME.........................uint256 seconds\n    Room..................................struct for room state {price, renter, attributes}\n    rooms.................................Room[]\n    roomOwners_byIndex....................mapping(tokenId => owner)\n    transferApproval_byIndex..............mapping(tokenId => address)\n    numRooms_byOwner......................mapping(owner => numTokens)\n    reservations..........................mapping(tokenId => mapping(time => address))\n    */\n\n    /** METHODS ***\n\n    ### Temporary for EthMemphis ###\n    addAccessCode(bytes32)................add new access code for ethMemphis aplicants\n    getNumberOfAccessCodes()..............see total outstanding access codes\n\n    ### Non-Fungible ###\n    totalSupply().........................get total supply\n    ownerOf(tokenId)......................get owner of specific token\n    transfer(to, tokenId).................transfer ownership\n    transferFrom(from, to, tokenId).......transfer ownership on behalf of owner\n    approve(to, tokenId)..................approve someone else to transfer token\n    balanceOf(owner)......................find how many tokens someone owns\n\n    ### Renting ###\n    checkAvailable(tokenId, time).........check future availability of token\n    getRoomInfo(tokenId)..................get information about the room\n    reserve(tokenId, start, stop).........reserve future access to token\n    access(tokenId).......................access the token\n    settle(tokenId).......................remove access and settle funds\n    cancelReservation.....................cancel reservation\n\n    ### Room ###\n    addRoom(numBeds)......................add new room\n    getCurrentTime(tokenId)...............get minRentTime for a specific room\n    changeMinRental(tokenId, minRental)...change minimum rental unit for a token\n    changeNumBeds(tokenId, numBeds).......change number of beds\n    */\n\n// room renting adds ERC-809 renting interface to room ownership\ncontract RoomRenting is RoomOwnership {\n\n    /**\n        STORAGE\n    */\n\n    bytes32[] accessCodes;\n\n    /**\n        CONSTRUCTOR\n    */\n\n    //sets the ceo of bookLocal\n    function RoomRenting() public {\n        ceo = msg.sender;\n    }\n\n    /**\n        MODIFIERS\n    */\n\n    // only let a guests with valid access code reserve the room\n    modifier onlyEthMemphis(bytes32 _accessCode) {\n        require(_validAccessCode(_accessCode));\n        _;\n    }\n\n    /**\n        TEMPORARY FUNCTIONS\n    */\n\n    /// *** ADD ACCESS CODE *** \\\\\\\n    /// only left here for use at ETH memephis\n    /// will remove for future versions\n    function addAccessCode(bytes32 _accessCode) external onlyCLevel {\n        accessCodes.push(_accessCode);\n    }\n\n    function getNumberOfAccessCodes() external view returns (uint256 _codesLeft) {\n        _codesLeft = accessCodes.length;\n    }\n\n    function _validAccessCode(bytes32 _accessCode) internal view returns (bool){\n        for (uint i=0; i<accessCodes.length; i++) {\n            if (_accessCode == accessCodes[i]) {\n                return true;\n            }\n        }\n        return false;\n    }\n\n    function _removeAccessCode(bytes32 _accessCode) internal returns(bool) {\n\n        uint256 _index;\n        bool _valid = false;\n\n        for (uint i=0; i<accessCodes.length; i++) {\n            if (_accessCode == accessCodes[i]) {\n                _index = i;\n                _valid = true;\n            }\n        }\n\n        if (_valid) {\n            _remove(_index);\n        } else {\n            return false;\n        }\n    }\n\n    function _remove(uint256 _index) internal returns(bool) {\n        require(_index <= accessCodes.length-1);\n\n        for (uint i = _index; i<accessCodes.length-1; i++){\n            accessCodes[i] = accessCodes[i+1];\n        }\n        delete accessCodes[accessCodes.length-1];\n        accessCodes.length--;\n        return true;\n    }\n\n    /**\n       ERC-809 FUNCTIONS\n    */\n\n    // @dev reserve future access to an asset\n    function reserve(uint256 _tokenId, uint256 _start, uint256 _stop, bytes32 _accessCode)\n\n    external\n    onlyEthMemphis(_accessCode)\n\n    returns (bool)\n    {\n        address guest = msg.sender;\n\n        // comment out for debug and testing\n        // require(_isFuture(_start));\n        require(_start<_stop);\n\n        // check availability (for all dates in range)\n        for (uint i = _start; i <= _stop; i ++) {\n            if (! _isAvailable(_tokenId, i)) {\n                return false;\n            }\n        }\n\n        // make reservation\n        for (i = _start; i <= _stop; i ++) {\n            reservations[_tokenId][i] = guest;\n        }\n\n        _removeAccessCode(_accessCode);\n\n        return true;\n    }\n\n    // @dev access your asset\n    function access(uint256 _tokenId) external {\n\n        // convert time to minimum rental units\n        Room storage room = rooms[_tokenId];\n        uint256 minRentTime = room.minRentTime;\n        uint256 _time = now/minRentTime;\n\n        // require permissions\n        // 1) owner\n        // 2) reserved guest\n        require(msg.sender == reservations[_tokenId][_time] || msg.sender == roomOwners_byIndex[_tokenId]);\n        room.renter = reservations[_tokenId][_time];\n    }\n\n    // @dev settle\n    function settle(uint256 _tokenId) external {\n\n        Room storage room = rooms[_tokenId];\n\n        address renter = room.renter;\n\n        if (msg.sender == roomOwners_byIndex[_tokenId] || msg.sender == renter) {\n            room.renter = address(0);\n        }\n    }\n\n    // @dev cancel reservation\n    function cancelReservation(uint256 _tokenId, uint256 _start, uint256 _stop) external {\n\n        // only cancle future reservations\n        require(_isFuture(_start));\n        require(_start<_stop);\n\n        // only room owner or renter address can cancel\n        if (msg.sender != roomOwners_byIndex[_tokenId]) {\n            for (uint i = _start; i <= _stop; i ++) {\n                require(msg.sender == _getRenter(_tokenId, i));\n            }\n        }\n\n        for (i = _start; i <= _stop; i ++) {\n            delete(reservations[_tokenId][i]);\n        }\n    }\n\n    // @dev lookup function\n    function checkAvailable(uint256 _tokenId, uint256 _date) external view returns (bool) {\n        return reservations[_tokenId][_date] == address(0);\n    }\n\n    /**\n        INTERNAL FUNCTIONS\n    */\n\n    // @dev internal check if reservation date is _isFuture\n    function _isFuture(uint256 _time) internal view returns (bool future) {\n        uint256 _now = now/MIN_RENT_TIME;\n\n        return _time>_now;\n    }\n\n    // @dev check availability\n    function _isAvailable(uint256 _tokenId, uint256 _time) internal view returns (bool) {\n        return reservations[_tokenId][_time] == address(0);\n    }\n\n    // @dev find renter of token at specific time\n    function _getRenter(uint256 _tokenId, uint256 _time)\n        internal\n        view\n        returns (address _renter)\n        {\n\n        _renter = reservations[_tokenId][_time];\n        }\n}\n",
  "sourcePath": "/Users/stevelee/Documents/BookLocal/proofOfConcept/contracts/RoomRenting.sol",
  "compiler": {
    "name": "solc",
    "version": "0.4.18+commit.9cf6e910.Emscripten.clang"
  },
  "schemaVersion": "1.0.1",
  "updatedAt": "2018-02-10T21:24:26.386Z"
}